{
  "_format": "hh-sol-artifact-1",
  "contractName": "LightAccount",
  "sourceName": "contracts/core/Account.sol",
  "abi": [
    {
      "inputs": [
        {
          "internalType": "contract IEntryPoint",
          "name": "anEntryPoint",
          "type": "address"
        }
      ],
      "stateMutability": "nonpayable",
      "type": "constructor"
    },
    {
      "inputs": [
        {
          "internalType": "address",
          "name": "target",
          "type": "address"
        }
      ],
      "name": "AddressEmptyCode",
      "type": "error"
    },
    {
      "inputs": [],
      "name": "ArrayLengthMismatch",
      "type": "error"
    },
    {
      "inputs": [
        {
          "internalType": "address",
          "name": "implementation",
          "type": "address"
        }
      ],
      "name": "ERC1967InvalidImplementation",
      "type": "error"
    },
    {
      "inputs": [],
      "name": "ERC1967NonPayable",
      "type": "error"
    },
    {
      "inputs": [],
      "name": "FailedInnerCall",
      "type": "error"
    },
    {
      "inputs": [],
      "name": "InvalidInitialization",
      "type": "error"
    },
    {
      "inputs": [
        {
          "internalType": "address",
          "name": "owner",
          "type": "address"
        }
      ],
      "name": "InvalidOwner",
      "type": "error"
    },
    {
      "inputs": [
        {
          "internalType": "address",
          "name": "caller",
          "type": "address"
        }
      ],
      "name": "NotAuthorized",
      "type": "error"
    },
    {
      "inputs": [],
      "name": "NotInitializing",
      "type": "error"
    },
    {
      "inputs": [],
      "name": "UUPSUnauthorizedCallContext",
      "type": "error"
    },
    {
      "inputs": [
        {
          "internalType": "bytes32",
          "name": "slot",
          "type": "bytes32"
        }
      ],
      "name": "UUPSUnsupportedProxiableUUID",
      "type": "error"
    },
    {
      "anonymous": false,
      "inputs": [
        {
          "indexed": false,
          "internalType": "uint64",
          "name": "version",
          "type": "uint64"
        }
      ],
      "name": "Initialized",
      "type": "event"
    },
    {
      "anonymous": false,
      "inputs": [
        {
          "indexed": true,
          "internalType": "contract IEntryPoint",
          "name": "entryPoint",
          "type": "address"
        },
        {
          "indexed": true,
          "internalType": "address",
          "name": "owner",
          "type": "address"
        }
      ],
      "name": "LightAccountInitialized",
      "type": "event"
    },
    {
      "anonymous": false,
      "inputs": [
        {
          "indexed": true,
          "internalType": "address",
          "name": "previousOwner",
          "type": "address"
        },
        {
          "indexed": true,
          "internalType": "address",
          "name": "newOwner",
          "type": "address"
        }
      ],
      "name": "OwnershipTransferred",
      "type": "event"
    },
    {
      "anonymous": false,
      "inputs": [
        {
          "indexed": true,
          "internalType": "address",
          "name": "implementation",
          "type": "address"
        }
      ],
      "name": "Upgraded",
      "type": "event"
    },
    {
      "inputs": [],
      "name": "UPGRADE_INTERFACE_VERSION",
      "outputs": [
        {
          "internalType": "string",
          "name": "",
          "type": "string"
        }
      ],
      "stateMutability": "view",
      "type": "function"
    },
    {
      "inputs": [],
      "name": "addDeposit",
      "outputs": [],
      "stateMutability": "payable",
      "type": "function"
    },
    {
      "inputs": [],
      "name": "domainSeparator",
      "outputs": [
        {
          "internalType": "bytes32",
          "name": "",
          "type": "bytes32"
        }
      ],
      "stateMutability": "view",
      "type": "function"
    },
    {
      "inputs": [
        {
          "internalType": "bytes",
          "name": "message",
          "type": "bytes"
        }
      ],
      "name": "encodeMessageData",
      "outputs": [
        {
          "internalType": "bytes",
          "name": "",
          "type": "bytes"
        }
      ],
      "stateMutability": "view",
      "type": "function"
    },
    {
      "inputs": [],
      "name": "entryPoint",
      "outputs": [
        {
          "internalType": "contract IEntryPoint",
          "name": "",
          "type": "address"
        }
      ],
      "stateMutability": "view",
      "type": "function"
    },
    {
      "inputs": [
        {
          "internalType": "address",
          "name": "dest",
          "type": "address"
        },
        {
          "internalType": "uint256",
          "name": "value",
          "type": "uint256"
        },
        {
          "internalType": "bytes",
          "name": "func",
          "type": "bytes"
        }
      ],
      "name": "execute",
      "outputs": [],
      "stateMutability": "nonpayable",
      "type": "function"
    },
    {
      "inputs": [
        {
          "internalType": "address[]",
          "name": "dest",
          "type": "address[]"
        },
        {
          "internalType": "bytes[]",
          "name": "func",
          "type": "bytes[]"
        }
      ],
      "name": "executeBatch",
      "outputs": [],
      "stateMutability": "nonpayable",
      "type": "function"
    },
    {
      "inputs": [
        {
          "internalType": "address[]",
          "name": "dest",
          "type": "address[]"
        },
        {
          "internalType": "uint256[]",
          "name": "value",
          "type": "uint256[]"
        },
        {
          "internalType": "bytes[]",
          "name": "func",
          "type": "bytes[]"
        }
      ],
      "name": "executeBatch",
      "outputs": [],
      "stateMutability": "nonpayable",
      "type": "function"
    },
    {
      "inputs": [],
      "name": "getDeposit",
      "outputs": [
        {
          "internalType": "uint256",
          "name": "",
          "type": "uint256"
        }
      ],
      "stateMutability": "view",
      "type": "function"
    },
    {
      "inputs": [
        {
          "internalType": "bytes",
          "name": "message",
          "type": "bytes"
        }
      ],
      "name": "getMessageHash",
      "outputs": [
        {
          "internalType": "bytes32",
          "name": "",
          "type": "bytes32"
        }
      ],
      "stateMutability": "view",
      "type": "function"
    },
    {
      "inputs": [],
      "name": "getNonce",
      "outputs": [
        {
          "internalType": "uint256",
          "name": "",
          "type": "uint256"
        }
      ],
      "stateMutability": "view",
      "type": "function"
    },
    {
      "inputs": [
        {
          "internalType": "address",
          "name": "anOwner",
          "type": "address"
        }
      ],
      "name": "initialize",
      "outputs": [],
      "stateMutability": "nonpayable",
      "type": "function"
    },
    {
      "inputs": [
        {
          "internalType": "bytes32",
          "name": "digest",
          "type": "bytes32"
        },
        {
          "internalType": "bytes",
          "name": "signature",
          "type": "bytes"
        }
      ],
      "name": "isValidSignature",
      "outputs": [
        {
          "internalType": "bytes4",
          "name": "",
          "type": "bytes4"
        }
      ],
      "stateMutability": "view",
      "type": "function"
    },
    {
      "inputs": [
        {
          "internalType": "address",
          "name": "",
          "type": "address"
        },
        {
          "internalType": "address",
          "name": "",
          "type": "address"
        },
        {
          "internalType": "uint256[]",
          "name": "",
          "type": "uint256[]"
        },
        {
          "internalType": "uint256[]",
          "name": "",
          "type": "uint256[]"
        },
        {
          "internalType": "bytes",
          "name": "",
          "type": "bytes"
        }
      ],
      "name": "onERC1155BatchReceived",
      "outputs": [
        {
          "internalType": "bytes4",
          "name": "",
          "type": "bytes4"
        }
      ],
      "stateMutability": "pure",
      "type": "function"
    },
    {
      "inputs": [
        {
          "internalType": "address",
          "name": "",
          "type": "address"
        },
        {
          "internalType": "address",
          "name": "",
          "type": "address"
        },
        {
          "internalType": "uint256",
          "name": "",
          "type": "uint256"
        },
        {
          "internalType": "uint256",
          "name": "",
          "type": "uint256"
        },
        {
          "internalType": "bytes",
          "name": "",
          "type": "bytes"
        }
      ],
      "name": "onERC1155Received",
      "outputs": [
        {
          "internalType": "bytes4",
          "name": "",
          "type": "bytes4"
        }
      ],
      "stateMutability": "pure",
      "type": "function"
    },
    {
      "inputs": [
        {
          "internalType": "address",
          "name": "",
          "type": "address"
        },
        {
          "internalType": "address",
          "name": "",
          "type": "address"
        },
        {
          "internalType": "uint256",
          "name": "",
          "type": "uint256"
        },
        {
          "internalType": "bytes",
          "name": "",
          "type": "bytes"
        }
      ],
      "name": "onERC721Received",
      "outputs": [
        {
          "internalType": "bytes4",
          "name": "",
          "type": "bytes4"
        }
      ],
      "stateMutability": "pure",
      "type": "function"
    },
    {
      "inputs": [],
      "name": "owner",
      "outputs": [
        {
          "internalType": "address",
          "name": "",
          "type": "address"
        }
      ],
      "stateMutability": "view",
      "type": "function"
    },
    {
      "inputs": [],
      "name": "proxiableUUID",
      "outputs": [
        {
          "internalType": "bytes32",
          "name": "",
          "type": "bytes32"
        }
      ],
      "stateMutability": "view",
      "type": "function"
    },
    {
      "inputs": [
        {
          "internalType": "bytes4",
          "name": "interfaceId",
          "type": "bytes4"
        }
      ],
      "name": "supportsInterface",
      "outputs": [
        {
          "internalType": "bool",
          "name": "",
          "type": "bool"
        }
      ],
      "stateMutability": "view",
      "type": "function"
    },
    {
      "inputs": [
        {
          "internalType": "address",
          "name": "newOwner",
          "type": "address"
        }
      ],
      "name": "transferOwnership",
      "outputs": [],
      "stateMutability": "nonpayable",
      "type": "function"
    },
    {
      "inputs": [
        {
          "internalType": "address",
          "name": "newImplementation",
          "type": "address"
        },
        {
          "internalType": "bytes",
          "name": "data",
          "type": "bytes"
        }
      ],
      "name": "upgradeToAndCall",
      "outputs": [],
      "stateMutability": "payable",
      "type": "function"
    },
    {
      "inputs": [
        {
          "components": [
            {
              "internalType": "address",
              "name": "sender",
              "type": "address"
            },
            {
              "internalType": "uint256",
              "name": "nonce",
              "type": "uint256"
            },
            {
              "internalType": "bytes",
              "name": "initCode",
              "type": "bytes"
            },
            {
              "internalType": "bytes",
              "name": "callData",
              "type": "bytes"
            },
            {
              "internalType": "uint256",
              "name": "callGasLimit",
              "type": "uint256"
            },
            {
              "internalType": "uint256",
              "name": "verificationGasLimit",
              "type": "uint256"
            },
            {
              "internalType": "uint256",
              "name": "preVerificationGas",
              "type": "uint256"
            },
            {
              "internalType": "uint256",
              "name": "maxFeePerGas",
              "type": "uint256"
            },
            {
              "internalType": "uint256",
              "name": "maxPriorityFeePerGas",
              "type": "uint256"
            },
            {
              "internalType": "bytes",
              "name": "paymasterAndData",
              "type": "bytes"
            },
            {
              "internalType": "bytes",
              "name": "signature",
              "type": "bytes"
            }
          ],
          "internalType": "struct UserOperation",
          "name": "userOp",
          "type": "tuple"
        },
        {
          "internalType": "bytes32",
          "name": "userOpHash",
          "type": "bytes32"
        },
        {
          "internalType": "uint256",
          "name": "missingAccountFunds",
          "type": "uint256"
        }
      ],
      "name": "validateUserOp",
      "outputs": [
        {
          "internalType": "uint256",
          "name": "validationData",
          "type": "uint256"
        }
      ],
      "stateMutability": "nonpayable",
      "type": "function"
    },
    {
      "inputs": [
        {
          "internalType": "address payable",
          "name": "withdrawAddress",
          "type": "address"
        },
        {
          "internalType": "uint256",
          "name": "amount",
          "type": "uint256"
        }
      ],
      "name": "withdrawDepositTo",
      "outputs": [],
      "stateMutability": "nonpayable",
      "type": "function"
    },
    {
      "stateMutability": "payable",
      "type": "receive"
    }
  ],
  "bytecode": "0x60e06040523073ffffffffffffffffffffffffffffffffffffffff1660809073ffffffffffffffffffffffffffffffffffffffff168152503480156200004457600080fd5b50604051620034353803806200343583398181016040528101906200006a919062000150565b7f33e4b41198cc5b8053630ed667ea7c0c4c873f7fc8d9a478b5d7259cec0a4a0060001b8060a08181525050508073ffffffffffffffffffffffffffffffffffffffff1660c08173ffffffffffffffffffffffffffffffffffffffff16815250505062000182565b600080fd5b600073ffffffffffffffffffffffffffffffffffffffff82169050919050565b60006200010482620000d7565b9050919050565b60006200011882620000f7565b9050919050565b6200012a816200010b565b81146200013657600080fd5b50565b6000815190506200014a816200011f565b92915050565b600060208284031215620001695762000168620000d2565b5b6000620001798482850162000139565b91505092915050565b60805160a05160c05161326e620001c760003960008181610c0c015261180c0152600061170f0152600081816114450152818161149a0152611655015261326e6000f3fe6080604052600436106101445760003560e01c80638da5cb5b116100b6578063c399ec881161006f578063c399ec8814610471578063c4d66de81461049c578063d087d288146104c5578063f23a6e61146104f0578063f2fde38b1461052d578063f698da25146105565761014b565b80638da5cb5b1461034d578063a786cac914610378578063ad3cb1cc146103b5578063b0d691fe146103e0578063b61d27f61461040b578063bc197c81146104345761014b565b80633a871cdd116101085780633a871cdd1461026d57806347e1da2a146102aa5780634a58db19146102d35780634d44560d146102dd5780634f1ef2861461030657806352d1902d146103225761014b565b806301ffc9a7146101505780630a1028c41461018d578063150b7a02146101ca5780631626ba7e1461020757806318dfb3c7146102445761014b565b3661014b57005b600080fd5b34801561015c57600080fd5b5061017760048036038101906101729190612028565b610581565b6040516101849190612070565b60405180910390f35b34801561019957600080fd5b506101b460048036038101906101af91906121d1565b6106bb565b6040516101c19190612233565b60405180910390f35b3480156101d657600080fd5b506101f160048036038101906101ec9190612342565b6106d4565b6040516101fe91906123d9565b60405180910390f35b34801561021357600080fd5b5061022e60048036038101906102299190612420565b6106e9565b60405161023b91906123d9565b60405180910390f35b34801561025057600080fd5b5061026b60048036038101906102669190612528565b61075d565b005b34801561027957600080fd5b50610294600480360381019061028f91906125ce565b610864565b6040516102a1919061264c565b60405180910390f35b3480156102b657600080fd5b506102d160048036038101906102cc91906126bd565b610897565b005b6102db6109cb565b005b3480156102e957600080fd5b5061030460048036038101906102ff91906127af565b610a40565b005b610320600480360381019061031b91906127ef565b610ac0565b005b34801561032e57600080fd5b50610337610adf565b6040516103449190612233565b60405180910390f35b34801561035957600080fd5b50610362610b12565b60405161036f919061285a565b60405180910390f35b34801561038457600080fd5b5061039f600480360381019061039a91906121d1565b610b45565b6040516103ac91906128f4565b60405180910390f35b3480156103c157600080fd5b506103ca610bcf565b6040516103d7919061296b565b60405180910390f35b3480156103ec57600080fd5b506103f5610c08565b60405161040291906129ec565b60405180910390f35b34801561041757600080fd5b50610432600480360381019061042d9190612a07565b610c30565b005b34801561044057600080fd5b5061045b60048036038101906104569190612a7b565b610c85565b60405161046891906123d9565b60405180910390f35b34801561047d57600080fd5b50610486610c9d565b604051610493919061264c565b60405180910390f35b3480156104a857600080fd5b506104c360048036038101906104be9190612b57565b610d25565b005b3480156104d157600080fd5b506104da610eb4565b6040516104e7919061264c565b60405180910390f35b3480156104fc57600080fd5b5061051760048036038101906105129190612b84565b610f3f565b60405161052491906123d9565b60405180910390f35b34801561053957600080fd5b50610554600480360381019061054f9190612b57565b610f55565b005b34801561056257600080fd5b5061056b611011565b6040516105789190612233565b60405180910390f35b60007f150b7a02000000000000000000000000000000000000000000000000000000007bffffffffffffffffffffffffffffffffffffffffffffffffffffffff1916827bffffffffffffffffffffffffffffffffffffffffffffffffffffffff1916148061064c57507f4e2312e0000000000000000000000000000000000000000000000000000000007bffffffffffffffffffffffffffffffffffffffffffffffffffffffff1916827bffffffffffffffffffffffffffffffffffffffffffffffffffffffff1916145b806106b457507f01ffc9a7000000000000000000000000000000000000000000000000000000007bffffffffffffffffffffffffffffffffffffffffffffffffffffffff1916827bffffffffffffffffffffffffffffffffffffffffffffffffffffffff1916145b9050919050565b60006106c682610b45565b805190602001209050919050565b600063150b7a0260e01b905095945050505050565b600080610714846040516020016107009190612233565b604051602081830303815290604052610b45565b905060008180519060200120905061073461072d610b12565b82866110a4565b1561074a57631626ba7e60e01b92505050610757565b63ffffffff60e01b925050505b92915050565b610765611134565b8181905084849050146107a4576040517fa24a13a600000000000000000000000000000000000000000000000000000000815260040160405180910390fd5b600084849050905060005b8181101561085c576108518686838181106107cd576107cc612c1e565b5b90506020020160208101906107e29190612b57565b60008686858181106107f7576107f6612c1e565b5b90506020028101906108099190612c5c565b8080601f016020809104026020016040519081016040528093929190818152602001838380828437600081840152601f19601f820116905080830192505050505050506111ee565b8060010190506107af565b505050505050565b600061086e611272565b61087884846112e9565b905061088784602001356112f1565b610890826112f4565b9392505050565b61089f611134565b81819050868690501415806108ba5750838390508686905014155b156108f1576040517fa24a13a600000000000000000000000000000000000000000000000000000000815260040160405180910390fd5b600086869050905060005b818110156109c1576109b688888381811061091a57610919612c1e565b5b905060200201602081019061092f9190612b57565b87878481811061094257610941612c1e565b5b9050602002013586868581811061095c5761095b612c1e565b5b905060200281019061096e9190612c5c565b8080601f016020809104026020016040519081016040528093929190818152602001838380828437600081840152601f19601f820116905080830192505050505050506111ee565b8060010190506108fc565b5050505050505050565b6109d3610c08565b73ffffffffffffffffffffffffffffffffffffffff1663b760faf934306040518363ffffffff1660e01b8152600401610a0c919061285a565b6000604051808303818588803b158015610a2557600080fd5b505af1158015610a39573d6000803e3d6000fd5b5050505050565b610a48611390565b610a50610c08565b73ffffffffffffffffffffffffffffffffffffffff1663205c287883836040518363ffffffff1660e01b8152600401610a8a929190612cce565b600060405180830381600087803b158015610aa457600080fd5b505af1158015610ab8573d6000803e3d6000fd5b505050505050565b610ac8611443565b610ad182611529565b610adb8282611534565b5050565b6000610ae9611653565b7f360894a13ba1a3210667c828492db98dca3e2076cc3735a920a3ca505d382bbc60001b905090565b6000610b1c6116da565b60000160009054906101000a900473ffffffffffffffffffffffffffffffffffffffff16905090565b606060007f5e3baca2936049843f06038876a12f03627b5edc98025751ecf2ac756264019960001b8380519060200120604051602001610b86929190612cf7565b604051602081830303815290604052805190602001209050610ba6611011565b81604051602001610bb8929190612d98565b604051602081830303815290604052915050919050565b6040518060400160405280600581526020017f352e302e3000000000000000000000000000000000000000000000000000000081525081565b60007f0000000000000000000000000000000000000000000000000000000000000000905090565b610c7f848484848080601f016020809104026020016040519081016040528093929190818152602001838380828437600081840152601f19601f820116905080830192505050505050506111ee565b50505050565b600063bc197c8160e01b905098975050505050505050565b6000610ca7610c08565b73ffffffffffffffffffffffffffffffffffffffff166370a08231306040518263ffffffff1660e01b8152600401610cdf919061285a565b602060405180830381865afa158015610cfc573d6000803e3d6000fd5b505050506040513d601f19601f82011682018060405250810190610d209190612de4565b905090565b6000610d2f61170a565b905060008160000160089054906101000a900460ff1615905060008260000160009054906101000a900467ffffffffffffffff1690506000808267ffffffffffffffff16148015610d7d5750825b9050600060018367ffffffffffffffff16148015610db2575060003073ffffffffffffffffffffffffffffffffffffffff163b145b905081158015610dc0575080155b15610df7576040517ff92ee8a900000000000000000000000000000000000000000000000000000000815260040160405180910390fd5b60018560000160006101000a81548167ffffffffffffffff021916908367ffffffffffffffff1602179055508315610e475760018560000160086101000a81548160ff0219169083151502179055505b610e5086611737565b8315610eac5760008560000160086101000a81548160ff0219169083151502179055507fc7f505b2f371ae2175ee4913f4499e1f2633a7b5936321eed1cdaeb6115181d26001604051610ea39190612e60565b60405180910390a15b505050505050565b6000610ebe610c08565b73ffffffffffffffffffffffffffffffffffffffff166335567e1a3060006040518363ffffffff1660e01b8152600401610ef9929190612eda565b602060405180830381865afa158015610f16573d6000803e3d6000fd5b505050506040513d601f19601f82011682018060405250810190610f3a9190612de4565b905090565b600063f23a6e6160e01b90509695505050505050565b610f5d611390565b600073ffffffffffffffffffffffffffffffffffffffff168173ffffffffffffffffffffffffffffffffffffffff161480610fc357503073ffffffffffffffffffffffffffffffffffffffff168173ffffffffffffffffffffffffffffffffffffffff16145b1561100557806040517fb20f76e3000000000000000000000000000000000000000000000000000000008152600401610ffc919061285a565b60405180910390fd5b61100e816118cb565b50565b60007f8b73c3c69bb8fe3d512ecc4cf759cc79239f7b179b0ffacaa9a75d522b39400f60001b60405160200161104690612f4f565b60405160208183030381529060405260405160200161106490612fbb565b6040516020818303038152906040524630604051602001611089959493929190612fdb565b60405160208183030381529060405280519060200120905090565b60008060006110b38585611a12565b5091509150600060038111156110cc576110cb61303c565b5b8160038111156110df576110de61303c565b5b14801561111757508573ffffffffffffffffffffffffffffffffffffffff168273ffffffffffffffffffffffffffffffffffffffff16145b806111295750611128868686611a6e565b5b925050509392505050565b61113c610c08565b73ffffffffffffffffffffffffffffffffffffffff163373ffffffffffffffffffffffffffffffffffffffff16141580156111aa575061117a610b12565b73ffffffffffffffffffffffffffffffffffffffff163373ffffffffffffffffffffffffffffffffffffffff1614155b156111ec57336040517f4a0bfec10000000000000000000000000000000000000000000000000000000081526004016111e3919061285a565b60405180910390fd5b565b6000808473ffffffffffffffffffffffffffffffffffffffff16848460405161121791906130a7565b60006040518083038185875af1925050503d8060008114611254576040519150601f19603f3d011682016040523d82523d6000602084013e611259565b606091505b50915091508161126b57805160208201fd5b5050505050565b61127a610c08565b73ffffffffffffffffffffffffffffffffffffffff163373ffffffffffffffffffffffffffffffffffffffff16146112e7576040517f08c379a00000000000000000000000000000000000000000000000000000000081526004016112de9061310a565b60405180910390fd5b565b600092915050565b50565b6000811461138d5760003373ffffffffffffffffffffffffffffffffffffffff16827fffffffffffffffffffffffffffffffffffffffffffffffffffffffffffffffff9060405161134490613150565b600060405180830381858888f193505050503d8060008114611382576040519150601f19603f3d011682016040523d82523d6000602084013e611387565b606091505b50509050505b50565b3073ffffffffffffffffffffffffffffffffffffffff163373ffffffffffffffffffffffffffffffffffffffff16141580156113ff57506113cf610b12565b73ffffffffffffffffffffffffffffffffffffffff163373ffffffffffffffffffffffffffffffffffffffff1614155b1561144157336040517f4a0bfec1000000000000000000000000000000000000000000000000000000008152600401611438919061285a565b60405180910390fd5b565b7f000000000000000000000000000000000000000000000000000000000000000073ffffffffffffffffffffffffffffffffffffffff163073ffffffffffffffffffffffffffffffffffffffff1614806114f057507f000000000000000000000000000000000000000000000000000000000000000073ffffffffffffffffffffffffffffffffffffffff166114d7611b92565b73ffffffffffffffffffffffffffffffffffffffff1614155b15611527576040517fe07c8dba00000000000000000000000000000000000000000000000000000000815260040160405180910390fd5b565b611531611390565b50565b8173ffffffffffffffffffffffffffffffffffffffff166352d1902d6040518163ffffffff1660e01b8152600401602060405180830381865afa92505050801561159c57506040513d601f19601f82011682018060405250810190611599919061317a565b60015b6115dd57816040517f4c9c8ce30000000000000000000000000000000000000000000000000000000081526004016115d4919061285a565b60405180910390fd5b7f360894a13ba1a3210667c828492db98dca3e2076cc3735a920a3ca505d382bbc60001b811461164457806040517faa1d49a400000000000000000000000000000000000000000000000000000000815260040161163b9190612233565b60405180910390fd5b61164e8383611be9565b505050565b7f000000000000000000000000000000000000000000000000000000000000000073ffffffffffffffffffffffffffffffffffffffff163073ffffffffffffffffffffffffffffffffffffffff16146116d8576040517fe07c8dba00000000000000000000000000000000000000000000000000000000815260040160405180910390fd5b565b6000807f691ec1a18226d004c07c9f8e5c4a6ff15a7b38db267cf7e3c945aef8be51220060001b90508091505090565b6000807f000000000000000000000000000000000000000000000000000000000000000090508091505090565b600073ffffffffffffffffffffffffffffffffffffffff168173ffffffffffffffffffffffffffffffffffffffff16036117a95760006040517fb20f76e30000000000000000000000000000000000000000000000000000000081526004016117a0919061285a565b60405180910390fd5b806117b26116da565b60000160006101000a81548173ffffffffffffffffffffffffffffffffffffffff021916908373ffffffffffffffffffffffffffffffffffffffff1602179055508073ffffffffffffffffffffffffffffffffffffffff167f000000000000000000000000000000000000000000000000000000000000000073ffffffffffffffffffffffffffffffffffffffff167fec6a23b49d2c363d250c9dda15610e835d428207d15ddb36a6c230e37371ddf160405160405180910390a38073ffffffffffffffffffffffffffffffffffffffff16600073ffffffffffffffffffffffffffffffffffffffff167f8be0079c531659141344cd1fd0a4f28419497f9722a3daafe3b4186f6b6457e060405160405180910390a350565b60006118d56116da565b905060008160000160009054906101000a900473ffffffffffffffffffffffffffffffffffffffff1690508073ffffffffffffffffffffffffffffffffffffffff168373ffffffffffffffffffffffffffffffffffffffff160361197057826040517fb20f76e3000000000000000000000000000000000000000000000000000000008152600401611967919061285a565b60405180910390fd5b828260000160006101000a81548173ffffffffffffffffffffffffffffffffffffffff021916908373ffffffffffffffffffffffffffffffffffffffff1602179055508273ffffffffffffffffffffffffffffffffffffffff168173ffffffffffffffffffffffffffffffffffffffff167f8be0079c531659141344cd1fd0a4f28419497f9722a3daafe3b4186f6b6457e060405160405180910390a3505050565b60008060006041845103611a575760008060006020870151925060408701519150606087015160001a9050611a4988828585611c5c565b955095509550505050611a67565b60006002855160001b9250925092505b9250925092565b60008060008573ffffffffffffffffffffffffffffffffffffffff168585604051602401611a9d9291906131a7565b604051602081830303815290604052631626ba7e60e01b6020820180517bffffffffffffffffffffffffffffffffffffffffffffffffffffffff8381831617835250505050604051611aef91906130a7565b600060405180830381855afa9150503d8060008114611b2a576040519150601f19603f3d011682016040523d82523d6000602084013e611b2f565b606091505b5091509150818015611b4357506020815110155b8015611b875750631626ba7e60e01b7bffffffffffffffffffffffffffffffffffffffffffffffffffffffff191681806020019051810190611b85919061317a565b145b925050509392505050565b6000611bc07f360894a13ba1a3210667c828492db98dca3e2076cc3735a920a3ca505d382bbc60001b611d50565b60000160009054906101000a900473ffffffffffffffffffffffffffffffffffffffff16905090565b611bf282611d5a565b8173ffffffffffffffffffffffffffffffffffffffff167fbc7cd75a20ee27fd9adebab32041f755214dbc6bffa90cc0225b39da2e5c2d3b60405160405180910390a2600081511115611c4f57611c498282611e27565b50611c58565b611c57611eab565b5b5050565b60008060007f7fffffffffffffffffffffffffffffff5d576e7357a4501ddfe92f46681b20a08460001c1115611c9c576000600385925092509250611d46565b600060018888888860405160008152602001604052604051611cc194939291906131f3565b6020604051602081039080840390855afa158015611ce3573d6000803e3d6000fd5b505050602060405103519050600073ffffffffffffffffffffffffffffffffffffffff168173ffffffffffffffffffffffffffffffffffffffff1603611d3757600060016000801b93509350935050611d46565b8060008060001b935093509350505b9450945094915050565b6000819050919050565b60008173ffffffffffffffffffffffffffffffffffffffff163b03611db657806040517f4c9c8ce3000000000000000000000000000000000000000000000000000000008152600401611dad919061285a565b60405180910390fd5b80611de37f360894a13ba1a3210667c828492db98dca3e2076cc3735a920a3ca505d382bbc60001b611d50565b60000160006101000a81548173ffffffffffffffffffffffffffffffffffffffff021916908373ffffffffffffffffffffffffffffffffffffffff16021790555050565b60606000808473ffffffffffffffffffffffffffffffffffffffff1684604051611e5191906130a7565b600060405180830381855af49150503d8060008114611e8c576040519150601f19603f3d011682016040523d82523d6000602084013e611e91565b606091505b5091509150611ea1858383611ee8565b9250505092915050565b6000341115611ee6576040517fb398979f00000000000000000000000000000000000000000000000000000000815260040160405180910390fd5b565b606082611efd57611ef882611f77565b611f6f565b60008251148015611f25575060008473ffffffffffffffffffffffffffffffffffffffff163b145b15611f6757836040517f9996b315000000000000000000000000000000000000000000000000000000008152600401611f5e919061285a565b60405180910390fd5b819050611f70565b5b9392505050565b600081511115611f8a5780518082602001fd5b6040517f1425ea4200000000000000000000000000000000000000000000000000000000815260040160405180910390fd5b6000604051905090565b600080fd5b600080fd5b60007fffffffff0000000000000000000000000000000000000000000000000000000082169050919050565b61200581611fd0565b811461201057600080fd5b50565b60008135905061202281611ffc565b92915050565b60006020828403121561203e5761203d611fc6565b5b600061204c84828501612013565b91505092915050565b60008115159050919050565b61206a81612055565b82525050565b60006020820190506120856000830184612061565b92915050565b600080fd5b600080fd5b6000601f19601f8301169050919050565b7f4e487b7100000000000000000000000000000000000000000000000000000000600052604160045260246000fd5b6120de82612095565b810181811067ffffffffffffffff821117156120fd576120fc6120a6565b5b80604052505050565b6000612110611fbc565b905061211c82826120d5565b919050565b600067ffffffffffffffff82111561213c5761213b6120a6565b5b61214582612095565b9050602081019050919050565b82818337600083830152505050565b600061217461216f84612121565b612106565b9050828152602081018484840111156121905761218f612090565b5b61219b848285612152565b509392505050565b600082601f8301126121b8576121b761208b565b5b81356121c8848260208601612161565b91505092915050565b6000602082840312156121e7576121e6611fc6565b5b600082013567ffffffffffffffff81111561220557612204611fcb565b5b612211848285016121a3565b91505092915050565b6000819050919050565b61222d8161221a565b82525050565b60006020820190506122486000830184612224565b92915050565b600073ffffffffffffffffffffffffffffffffffffffff82169050919050565b60006122798261224e565b9050919050565b6122898161226e565b811461229457600080fd5b50565b6000813590506122a681612280565b92915050565b6000819050919050565b6122bf816122ac565b81146122ca57600080fd5b50565b6000813590506122dc816122b6565b92915050565b600080fd5b600080fd5b60008083601f8401126123025761230161208b565b5b8235905067ffffffffffffffff81111561231f5761231e6122e2565b5b60208301915083600182028301111561233b5761233a6122e7565b5b9250929050565b60008060008060006080868803121561235e5761235d611fc6565b5b600061236c88828901612297565b955050602061237d88828901612297565b945050604061238e888289016122cd565b935050606086013567ffffffffffffffff8111156123af576123ae611fcb565b5b6123bb888289016122ec565b92509250509295509295909350565b6123d381611fd0565b82525050565b60006020820190506123ee60008301846123ca565b92915050565b6123fd8161221a565b811461240857600080fd5b50565b60008135905061241a816123f4565b92915050565b6000806040838503121561243757612436611fc6565b5b60006124458582860161240b565b925050602083013567ffffffffffffffff81111561246657612465611fcb565b5b612472858286016121a3565b9150509250929050565b60008083601f8401126124925761249161208b565b5b8235905067ffffffffffffffff8111156124af576124ae6122e2565b5b6020830191508360208202830111156124cb576124ca6122e7565b5b9250929050565b60008083601f8401126124e8576124e761208b565b5b8235905067ffffffffffffffff811115612505576125046122e2565b5b602083019150836020820283011115612521576125206122e7565b5b9250929050565b6000806000806040858703121561254257612541611fc6565b5b600085013567ffffffffffffffff8111156125605761255f611fcb565b5b61256c8782880161247c565b9450945050602085013567ffffffffffffffff81111561258f5761258e611fcb565b5b61259b878288016124d2565b925092505092959194509250565b600080fd5b600061016082840312156125c5576125c46125a9565b5b81905092915050565b6000806000606084860312156125e7576125e6611fc6565b5b600084013567ffffffffffffffff81111561260557612604611fcb565b5b612611868287016125ae565b93505060206126228682870161240b565b9250506040612633868287016122cd565b9150509250925092565b612646816122ac565b82525050565b6000602082019050612661600083018461263d565b92915050565b60008083601f84011261267d5761267c61208b565b5b8235905067ffffffffffffffff81111561269a576126996122e2565b5b6020830191508360208202830111156126b6576126b56122e7565b5b9250929050565b600080600080600080606087890312156126da576126d9611fc6565b5b600087013567ffffffffffffffff8111156126f8576126f7611fcb565b5b61270489828a0161247c565b9650965050602087013567ffffffffffffffff81111561272757612726611fcb565b5b61273389828a01612667565b9450945050604087013567ffffffffffffffff81111561275657612755611fcb565b5b61276289828a016124d2565b92509250509295509295509295565b600061277c8261224e565b9050919050565b61278c81612771565b811461279757600080fd5b50565b6000813590506127a981612783565b92915050565b600080604083850312156127c6576127c5611fc6565b5b60006127d48582860161279a565b92505060206127e5858286016122cd565b9150509250929050565b6000806040838503121561280657612805611fc6565b5b600061281485828601612297565b925050602083013567ffffffffffffffff81111561283557612834611fcb565b5b612841858286016121a3565b9150509250929050565b6128548161226e565b82525050565b600060208201905061286f600083018461284b565b92915050565b600081519050919050565b600082825260208201905092915050565b60005b838110156128af578082015181840152602081019050612894565b60008484015250505050565b60006128c682612875565b6128d08185612880565b93506128e0818560208601612891565b6128e981612095565b840191505092915050565b6000602082019050818103600083015261290e81846128bb565b905092915050565b600081519050919050565b600082825260208201905092915050565b600061293d82612916565b6129478185612921565b9350612957818560208601612891565b61296081612095565b840191505092915050565b600060208201905081810360008301526129858184612932565b905092915050565b6000819050919050565b60006129b26129ad6129a88461224e565b61298d565b61224e565b9050919050565b60006129c482612997565b9050919050565b60006129d6826129b9565b9050919050565b6129e6816129cb565b82525050565b6000602082019050612a0160008301846129dd565b92915050565b60008060008060608587031215612a2157612a20611fc6565b5b6000612a2f87828801612297565b9450506020612a40878288016122cd565b935050604085013567ffffffffffffffff811115612a6157612a60611fcb565b5b612a6d878288016122ec565b925092505092959194509250565b60008060008060008060008060a0898b031215612a9b57612a9a611fc6565b5b6000612aa98b828c01612297565b9850506020612aba8b828c01612297565b975050604089013567ffffffffffffffff811115612adb57612ada611fcb565b5b612ae78b828c01612667565b9650965050606089013567ffffffffffffffff811115612b0a57612b09611fcb565b5b612b168b828c01612667565b9450945050608089013567ffffffffffffffff811115612b3957612b38611fcb565b5b612b458b828c016122ec565b92509250509295985092959890939650565b600060208284031215612b6d57612b6c611fc6565b5b6000612b7b84828501612297565b91505092915050565b60008060008060008060a08789031215612ba157612ba0611fc6565b5b6000612baf89828a01612297565b9650506020612bc089828a01612297565b9550506040612bd189828a016122cd565b9450506060612be289828a016122cd565b935050608087013567ffffffffffffffff811115612c0357612c02611fcb565b5b612c0f89828a016122ec565b92509250509295509295509295565b7f4e487b7100000000000000000000000000000000000000000000000000000000600052603260045260246000fd5b600080fd5b600080fd5b600080fd5b60008083356001602003843603038112612c7957612c78612c4d565b5b80840192508235915067ffffffffffffffff821115612c9b57612c9a612c52565b5b602083019250600182023603831315612cb757612cb6612c57565b5b509250929050565b612cc881612771565b82525050565b6000604082019050612ce36000830185612cbf565b612cf0602083018461263d565b9392505050565b6000604082019050612d0c6000830185612224565b612d196020830184612224565b9392505050565b600081905092915050565b7f1901000000000000000000000000000000000000000000000000000000000000600082015250565b6000612d61600283612d20565b9150612d6c82612d2b565b600282019050919050565b6000819050919050565b612d92612d8d8261221a565b612d77565b82525050565b6000612da382612d54565b9150612daf8285612d81565b602082019150612dbf8284612d81565b6020820191508190509392505050565b600081519050612dde816122b6565b92915050565b600060208284031215612dfa57612df9611fc6565b5b6000612e0884828501612dcf565b91505092915050565b6000819050919050565b600067ffffffffffffffff82169050919050565b6000612e4a612e45612e4084612e11565b61298d565b612e1b565b9050919050565b612e5a81612e2f565b82525050565b6000602082019050612e756000830184612e51565b92915050565b6000819050919050565b600077ffffffffffffffffffffffffffffffffffffffffffffffff82169050919050565b6000612ec4612ebf612eba84612e7b565b61298d565b612e85565b9050919050565b612ed481612ea9565b82525050565b6000604082019050612eef600083018561284b565b612efc6020830184612ecb565b9392505050565b7f4c696768744163636f756e740000000000000000000000000000000000000000600082015250565b6000612f39600c83612921565b9150612f4482612f03565b602082019050919050565b60006020820190508181036000830152612f6881612f2c565b9050919050565b7f3100000000000000000000000000000000000000000000000000000000000000600082015250565b6000612fa5600183612921565b9150612fb082612f6f565b602082019050919050565b60006020820190508181036000830152612fd481612f98565b9050919050565b600060a082019050612ff06000830188612224565b818103602083015261300281876128bb565b9050818103604083015261301681866128bb565b9050613025606083018561263d565b613032608083018461284b565b9695505050505050565b7f4e487b7100000000000000000000000000000000000000000000000000000000600052602160045260246000fd5b600081905092915050565b600061308182612875565b61308b818561306b565b935061309b818560208601612891565b80840191505092915050565b60006130b38284613076565b915081905092915050565b7f6163636f756e743a206e6f742066726f6d20456e747279506f696e7400000000600082015250565b60006130f4601c83612921565b91506130ff826130be565b602082019050919050565b60006020820190508181036000830152613123816130e7565b9050919050565b50565b600061313a60008361306b565b91506131458261312a565b600082019050919050565b600061315b8261312d565b9150819050919050565b600081519050613174816123f4565b92915050565b6000602082840312156131905761318f611fc6565b5b600061319e84828501613165565b91505092915050565b60006040820190506131bc6000830185612224565b81810360208301526131ce81846128bb565b90509392505050565b600060ff82169050919050565b6131ed816131d7565b82525050565b60006080820190506132086000830187612224565b61321560208301866131e4565b6132226040830185612224565b61322f6060830184612224565b9594505050505056fea264697066735822122019e83ecba2b4313ac8ef12b59ffd7ea0c66e16f32e5ebc4ef04d11e17ea9b82264736f6c63430008140033",
  "linkReferences": {},
  "deployedLinkReferences": {}
}