{
  "_format": "hh-sol-artifact-1",
  "contractName": "TokenCallbackHandler",
  "sourceName": "contracts/core/utils/TokenCallbackHandler.sol",
  "abi": [
    {
      "inputs": [
        {
          "internalType": "address",
          "name": "",
          "type": "address"
        },
        {
          "internalType": "address",
          "name": "",
          "type": "address"
        },
        {
          "internalType": "uint256[]",
          "name": "",
          "type": "uint256[]"
        },
        {
          "internalType": "uint256[]",
          "name": "",
          "type": "uint256[]"
        },
        {
          "internalType": "bytes",
          "name": "",
          "type": "bytes"
        }
      ],
      "name": "onERC1155BatchReceived",
      "outputs": [
        {
          "internalType": "bytes4",
          "name": "",
          "type": "bytes4"
        }
      ],
      "stateMutability": "pure",
      "type": "function"
    },
    {
      "inputs": [
        {
          "internalType": "address",
          "name": "",
          "type": "address"
        },
        {
          "internalType": "address",
          "name": "",
          "type": "address"
        },
        {
          "internalType": "uint256",
          "name": "",
          "type": "uint256"
        },
        {
          "internalType": "uint256",
          "name": "",
          "type": "uint256"
        },
        {
          "internalType": "bytes",
          "name": "",
          "type": "bytes"
        }
      ],
      "name": "onERC1155Received",
      "outputs": [
        {
          "internalType": "bytes4",
          "name": "",
          "type": "bytes4"
        }
      ],
      "stateMutability": "pure",
      "type": "function"
    },
    {
      "inputs": [
        {
          "internalType": "address",
          "name": "",
          "type": "address"
        },
        {
          "internalType": "address",
          "name": "",
          "type": "address"
        },
        {
          "internalType": "uint256",
          "name": "",
          "type": "uint256"
        },
        {
          "internalType": "bytes",
          "name": "",
          "type": "bytes"
        }
      ],
      "name": "onERC721Received",
      "outputs": [
        {
          "internalType": "bytes4",
          "name": "",
          "type": "bytes4"
        }
      ],
      "stateMutability": "pure",
      "type": "function"
    },
    {
      "inputs": [
        {
          "internalType": "bytes4",
          "name": "interfaceId",
          "type": "bytes4"
        }
      ],
      "name": "supportsInterface",
      "outputs": [
        {
          "internalType": "bool",
          "name": "",
          "type": "bool"
        }
      ],
      "stateMutability": "view",
      "type": "function"
    }
  ],
  "bytecode": "0x608060405234801561001057600080fd5b50610700806100206000396000f3fe608060405234801561001057600080fd5b506004361061004c5760003560e01c806301ffc9a714610051578063150b7a0214610081578063bc197c81146100b1578063f23a6e61146100e1575b600080fd5b61006b600480360381019061006691906102f0565b610111565b6040516100789190610338565b60405180910390f35b61009b6004803603810190610096919061044c565b61024b565b6040516100a891906104e3565b60405180910390f35b6100cb60048036038101906100c69190610554565b610260565b6040516100d891906104e3565b60405180910390f35b6100fb60048036038101906100f69190610630565b610278565b60405161010891906104e3565b60405180910390f35b60007f150b7a02000000000000000000000000000000000000000000000000000000007bffffffffffffffffffffffffffffffffffffffffffffffffffffffff1916827bffffffffffffffffffffffffffffffffffffffffffffffffffffffff191614806101dc57507f4e2312e0000000000000000000000000000000000000000000000000000000007bffffffffffffffffffffffffffffffffffffffffffffffffffffffff1916827bffffffffffffffffffffffffffffffffffffffffffffffffffffffff1916145b8061024457507f01ffc9a7000000000000000000000000000000000000000000000000000000007bffffffffffffffffffffffffffffffffffffffffffffffffffffffff1916827bffffffffffffffffffffffffffffffffffffffffffffffffffffffff1916145b9050919050565b600063150b7a0260e01b905095945050505050565b600063bc197c8160e01b905098975050505050505050565b600063f23a6e6160e01b90509695505050505050565b600080fd5b600080fd5b60007fffffffff0000000000000000000000000000000000000000000000000000000082169050919050565b6102cd81610298565b81146102d857600080fd5b50565b6000813590506102ea816102c4565b92915050565b6000602082840312156103065761030561028e565b5b6000610314848285016102db565b91505092915050565b60008115159050919050565b6103328161031d565b82525050565b600060208201905061034d6000830184610329565b92915050565b600073ffffffffffffffffffffffffffffffffffffffff82169050919050565b600061037e82610353565b9050919050565b61038e81610373565b811461039957600080fd5b50565b6000813590506103ab81610385565b92915050565b6000819050919050565b6103c4816103b1565b81146103cf57600080fd5b50565b6000813590506103e1816103bb565b92915050565b600080fd5b600080fd5b600080fd5b60008083601f84011261040c5761040b6103e7565b5b8235905067ffffffffffffffff811115610429576104286103ec565b5b602083019150836001820283011115610445576104446103f1565b5b9250929050565b6000806000806000608086880312156104685761046761028e565b5b60006104768882890161039c565b95505060206104878882890161039c565b9450506040610498888289016103d2565b935050606086013567ffffffffffffffff8111156104b9576104b8610293565b5b6104c5888289016103f6565b92509250509295509295909350565b6104dd81610298565b82525050565b60006020820190506104f860008301846104d4565b92915050565b60008083601f840112610514576105136103e7565b5b8235905067ffffffffffffffff811115610531576105306103ec565b5b60208301915083602082028301111561054d5761054c6103f1565b5b9250929050565b60008060008060008060008060a0898b0312156105745761057361028e565b5b60006105828b828c0161039c565b98505060206105938b828c0161039c565b975050604089013567ffffffffffffffff8111156105b4576105b3610293565b5b6105c08b828c016104fe565b9650965050606089013567ffffffffffffffff8111156105e3576105e2610293565b5b6105ef8b828c016104fe565b9450945050608089013567ffffffffffffffff81111561061257610611610293565b5b61061e8b828c016103f6565b92509250509295985092959890939650565b60008060008060008060a0878903121561064d5761064c61028e565b5b600061065b89828a0161039c565b965050602061066c89828a0161039c565b955050604061067d89828a016103d2565b945050606061068e89828a016103d2565b935050608087013567ffffffffffffffff8111156106af576106ae610293565b5b6106bb89828a016103f6565b9250925050929550929550929556fea264697066735822122023006ee4b6e1e28e29084e835d6520e8bc68e7f77be7af94c82a74da6f2efecd64736f6c63430008140033",
  "linkReferences": {},
  "deployedLinkReferences": {}
}