{
  "_format": "hh-sol-artifact-1",
  "contractName": "Messenger",
  "sourceName": "contracts/test/CCIP.sol",
  "abi": [
    {
      "inputs": [
        {
          "internalType": "address",
          "name": "_router",
          "type": "address"
        },
        {
          "internalType": "address",
          "name": "_link",
          "type": "address"
        }
      ],
      "stateMutability": "nonpayable",
      "type": "constructor"
    },
    {
      "inputs": [
        {
          "internalType": "uint64",
          "name": "destinationChainSelector",
          "type": "uint64"
        }
      ],
      "name": "DestinationChainNotAllowlisted",
      "type": "error"
    },
    {
      "inputs": [
        {
          "internalType": "address",
          "name": "owner",
          "type": "address"
        },
        {
          "internalType": "address",
          "name": "target",
          "type": "address"
        },
        {
          "internalType": "uint256",
          "name": "value",
          "type": "uint256"
        }
      ],
      "name": "FailedToWithdrawEth",
      "type": "error"
    },
    {
      "inputs": [
        {
          "internalType": "address",
          "name": "router",
          "type": "address"
        }
      ],
      "name": "InvalidRouter",
      "type": "error"
    },
    {
      "inputs": [
        {
          "internalType": "uint256",
          "name": "currentBalance",
          "type": "uint256"
        },
        {
          "internalType": "uint256",
          "name": "calculatedFees",
          "type": "uint256"
        }
      ],
      "name": "NotEnoughBalance",
      "type": "error"
    },
    {
      "inputs": [],
      "name": "NothingToWithdraw",
      "type": "error"
    },
    {
      "inputs": [
        {
          "internalType": "address",
          "name": "sender",
          "type": "address"
        }
      ],
      "name": "SenderNotAllowlisted",
      "type": "error"
    },
    {
      "inputs": [
        {
          "internalType": "uint64",
          "name": "sourceChainSelector",
          "type": "uint64"
        }
      ],
      "name": "SourceChainNotAllowlisted",
      "type": "error"
    },
    {
      "anonymous": false,
      "inputs": [
        {
          "indexed": true,
          "internalType": "bytes32",
          "name": "messageId",
          "type": "bytes32"
        },
        {
          "indexed": true,
          "internalType": "uint64",
          "name": "sourceChainSelector",
          "type": "uint64"
        },
        {
          "indexed": false,
          "internalType": "address",
          "name": "sender",
          "type": "address"
        },
        {
          "indexed": false,
          "internalType": "string",
          "name": "text",
          "type": "string"
        }
      ],
      "name": "MessageReceived",
      "type": "event"
    },
    {
      "anonymous": false,
      "inputs": [
        {
          "indexed": true,
          "internalType": "bytes32",
          "name": "messageId",
          "type": "bytes32"
        },
        {
          "indexed": true,
          "internalType": "uint64",
          "name": "destinationChainSelector",
          "type": "uint64"
        },
        {
          "indexed": false,
          "internalType": "address",
          "name": "receiver",
          "type": "address"
        },
        {
          "indexed": false,
          "internalType": "string",
          "name": "text",
          "type": "string"
        },
        {
          "indexed": false,
          "internalType": "address",
          "name": "feeToken",
          "type": "address"
        },
        {
          "indexed": false,
          "internalType": "uint256",
          "name": "fees",
          "type": "uint256"
        }
      ],
      "name": "MessageSent",
      "type": "event"
    },
    {
      "anonymous": false,
      "inputs": [
        {
          "indexed": true,
          "internalType": "address",
          "name": "from",
          "type": "address"
        },
        {
          "indexed": true,
          "internalType": "address",
          "name": "to",
          "type": "address"
        }
      ],
      "name": "OwnershipTransferRequested",
      "type": "event"
    },
    {
      "anonymous": false,
      "inputs": [
        {
          "indexed": true,
          "internalType": "address",
          "name": "from",
          "type": "address"
        },
        {
          "indexed": true,
          "internalType": "address",
          "name": "to",
          "type": "address"
        }
      ],
      "name": "OwnershipTransferred",
      "type": "event"
    },
    {
      "inputs": [],
      "name": "acceptOwnership",
      "outputs": [],
      "stateMutability": "nonpayable",
      "type": "function"
    },
    {
      "inputs": [
        {
          "internalType": "uint64",
          "name": "_destinationChainSelector",
          "type": "uint64"
        },
        {
          "internalType": "bool",
          "name": "allowed",
          "type": "bool"
        }
      ],
      "name": "allowlistDestinationChain",
      "outputs": [],
      "stateMutability": "nonpayable",
      "type": "function"
    },
    {
      "inputs": [
        {
          "internalType": "address",
          "name": "_sender",
          "type": "address"
        },
        {
          "internalType": "bool",
          "name": "allowed",
          "type": "bool"
        }
      ],
      "name": "allowlistSender",
      "outputs": [],
      "stateMutability": "nonpayable",
      "type": "function"
    },
    {
      "inputs": [
        {
          "internalType": "uint64",
          "name": "_sourceChainSelector",
          "type": "uint64"
        },
        {
          "internalType": "bool",
          "name": "allowed",
          "type": "bool"
        }
      ],
      "name": "allowlistSourceChain",
      "outputs": [],
      "stateMutability": "nonpayable",
      "type": "function"
    },
    {
      "inputs": [
        {
          "internalType": "uint64",
          "name": "",
          "type": "uint64"
        }
      ],
      "name": "allowlistedDestinationChains",
      "outputs": [
        {
          "internalType": "bool",
          "name": "",
          "type": "bool"
        }
      ],
      "stateMutability": "view",
      "type": "function"
    },
    {
      "inputs": [
        {
          "internalType": "address",
          "name": "",
          "type": "address"
        }
      ],
      "name": "allowlistedSenders",
      "outputs": [
        {
          "internalType": "bool",
          "name": "",
          "type": "bool"
        }
      ],
      "stateMutability": "view",
      "type": "function"
    },
    {
      "inputs": [
        {
          "internalType": "uint64",
          "name": "",
          "type": "uint64"
        }
      ],
      "name": "allowlistedSourceChains",
      "outputs": [
        {
          "internalType": "bool",
          "name": "",
          "type": "bool"
        }
      ],
      "stateMutability": "view",
      "type": "function"
    },
    {
      "inputs": [
        {
          "components": [
            {
              "internalType": "bytes32",
              "name": "messageId",
              "type": "bytes32"
            },
            {
              "internalType": "uint64",
              "name": "sourceChainSelector",
              "type": "uint64"
            },
            {
              "internalType": "bytes",
              "name": "sender",
              "type": "bytes"
            },
            {
              "internalType": "bytes",
              "name": "data",
              "type": "bytes"
            },
            {
              "components": [
                {
                  "internalType": "address",
                  "name": "token",
                  "type": "address"
                },
                {
                  "internalType": "uint256",
                  "name": "amount",
                  "type": "uint256"
                }
              ],
              "internalType": "struct Client.EVMTokenAmount[]",
              "name": "destTokenAmounts",
              "type": "tuple[]"
            }
          ],
          "internalType": "struct Client.Any2EVMMessage",
          "name": "message",
          "type": "tuple"
        }
      ],
      "name": "ccipReceive",
      "outputs": [],
      "stateMutability": "nonpayable",
      "type": "function"
    },
    {
      "inputs": [],
      "name": "getLastReceivedMessageDetails",
      "outputs": [
        {
          "internalType": "bytes32",
          "name": "messageId",
          "type": "bytes32"
        },
        {
          "internalType": "string",
          "name": "text",
          "type": "string"
        }
      ],
      "stateMutability": "view",
      "type": "function"
    },
    {
      "inputs": [],
      "name": "getRouter",
      "outputs": [
        {
          "internalType": "address",
          "name": "",
          "type": "address"
        }
      ],
      "stateMutability": "view",
      "type": "function"
    },
    {
      "inputs": [],
      "name": "owner",
      "outputs": [
        {
          "internalType": "address",
          "name": "",
          "type": "address"
        }
      ],
      "stateMutability": "view",
      "type": "function"
    },
    {
      "inputs": [
        {
          "internalType": "uint64",
          "name": "_destinationChainSelector",
          "type": "uint64"
        },
        {
          "internalType": "address",
          "name": "_receiver",
          "type": "address"
        },
        {
          "internalType": "string",
          "name": "_text",
          "type": "string"
        }
      ],
      "name": "sendMessagePayLINK",
      "outputs": [
        {
          "internalType": "bytes32",
          "name": "messageId",
          "type": "bytes32"
        }
      ],
      "stateMutability": "nonpayable",
      "type": "function"
    },
    {
      "inputs": [
        {
          "internalType": "uint64",
          "name": "_destinationChainSelector",
          "type": "uint64"
        },
        {
          "internalType": "address",
          "name": "_receiver",
          "type": "address"
        },
        {
          "internalType": "string",
          "name": "_text",
          "type": "string"
        }
      ],
      "name": "sendMessagePayNative",
      "outputs": [
        {
          "internalType": "bytes32",
          "name": "messageId",
          "type": "bytes32"
        }
      ],
      "stateMutability": "nonpayable",
      "type": "function"
    },
    {
      "inputs": [
        {
          "internalType": "bytes4",
          "name": "interfaceId",
          "type": "bytes4"
        }
      ],
      "name": "supportsInterface",
      "outputs": [
        {
          "internalType": "bool",
          "name": "",
          "type": "bool"
        }
      ],
      "stateMutability": "pure",
      "type": "function"
    },
    {
      "inputs": [
        {
          "internalType": "address",
          "name": "to",
          "type": "address"
        }
      ],
      "name": "transferOwnership",
      "outputs": [],
      "stateMutability": "nonpayable",
      "type": "function"
    },
    {
      "inputs": [
        {
          "internalType": "address",
          "name": "_beneficiary",
          "type": "address"
        }
      ],
      "name": "withdraw",
      "outputs": [],
      "stateMutability": "nonpayable",
      "type": "function"
    },
    {
      "inputs": [
        {
          "internalType": "address",
          "name": "_beneficiary",
          "type": "address"
        },
        {
          "internalType": "address",
          "name": "_token",
          "type": "address"
        }
      ],
      "name": "withdrawToken",
      "outputs": [],
      "stateMutability": "nonpayable",
      "type": "function"
    },
    {
      "stateMutability": "payable",
      "type": "receive"
    }
  ],
  "bytecode": "0x60a06040527393759b710caf622ddf803517f6adb95ff799dc19600260006101000a81548173ffffffffffffffffffffffffffffffffffffffff021916908373ffffffffffffffffffffffffffffffffffffffff1602179055503480156200006657600080fd5b5060405162003c9e38038062003c9e83398181016040528101906200008c919062000419565b3380600084600073ffffffffffffffffffffffffffffffffffffffff168173ffffffffffffffffffffffffffffffffffffffff1603620001065760006040517fd7f73334000000000000000000000000000000000000000000000000000000008152600401620000fd919062000471565b60405180910390fd5b8073ffffffffffffffffffffffffffffffffffffffff1660808173ffffffffffffffffffffffffffffffffffffffff168152505050600073ffffffffffffffffffffffffffffffffffffffff168273ffffffffffffffffffffffffffffffffffffffff1603620001ad576040517f08c379a0000000000000000000000000000000000000000000000000000000008152600401620001a490620004ef565b60405180910390fd5b816000806101000a81548173ffffffffffffffffffffffffffffffffffffffff021916908373ffffffffffffffffffffffffffffffffffffffff160217905550600073ffffffffffffffffffffffffffffffffffffffff168173ffffffffffffffffffffffffffffffffffffffff1614620002345762000233816200028060201b60201c565b5b50505080600860006101000a81548173ffffffffffffffffffffffffffffffffffffffff021916908373ffffffffffffffffffffffffffffffffffffffff160217905550505062000583565b3373ffffffffffffffffffffffffffffffffffffffff168173ffffffffffffffffffffffffffffffffffffffff1603620002f1576040517f08c379a0000000000000000000000000000000000000000000000000000000008152600401620002e89062000561565b60405180910390fd5b80600160006101000a81548173ffffffffffffffffffffffffffffffffffffffff021916908373ffffffffffffffffffffffffffffffffffffffff1602179055508073ffffffffffffffffffffffffffffffffffffffff1660008054906101000a900473ffffffffffffffffffffffffffffffffffffffff1673ffffffffffffffffffffffffffffffffffffffff167fed8889f560326eb138920d842192f0eb3dd22b4f139c87a2c57538e05bae127860405160405180910390a350565b600080fd5b600073ffffffffffffffffffffffffffffffffffffffff82169050919050565b6000620003e182620003b4565b9050919050565b620003f381620003d4565b8114620003ff57600080fd5b50565b6000815190506200041381620003e8565b92915050565b60008060408385031215620004335762000432620003af565b5b6000620004438582860162000402565b9250506020620004568582860162000402565b9150509250929050565b6200046b81620003d4565b82525050565b600060208201905062000488600083018462000460565b92915050565b600082825260208201905092915050565b7f43616e6e6f7420736574206f776e657220746f207a65726f0000000000000000600082015250565b6000620004d76018836200048e565b9150620004e4826200049f565b602082019050919050565b600060208201905081810360008301526200050a81620004c8565b9050919050565b7f43616e6e6f74207472616e7366657220746f2073656c66000000000000000000600082015250565b6000620005496017836200048e565b9150620005568262000511565b602082019050919050565b600060208201905081810360008301526200057c816200053a565b9050919050565b6080516136f8620005a66000396000818161113e015261125901526136f86000f3fe6080604052600436106101025760003560e01c80637b77dd041161009557806396d3b83d1161006457806396d3b83d14610365578063b0f479a11461038e578063db04fa49146103b9578063eab5b02c146103e2578063f2fde38b1461040b57610109565b80637b77dd041461029757806381568a06146102d457806385572ffb146103115780638da5cb5b1461033a57610109565b806351cff8d9116100d157806351cff8d9146101dd5780636159ada11461020657806375c67c661461024357806379ba50971461028057610109565b806301ffc9a71461010e578063263596a51461014b5780633aeac4e1146101775780634030d521146101a057610109565b3661010957005b600080fd5b34801561011a57600080fd5b5061013560048036038101906101309190612123565b610434565b604051610142919061216b565b60405180910390f35b34801561015757600080fd5b50610160610506565b60405161016e92919061222f565b60405180910390f35b34801561018357600080fd5b5061019e600480360381019061019991906122bd565b6105a3565b005b3480156101ac57600080fd5b506101c760048036038101906101c2919061233d565b6106e7565b6040516101d4919061216b565b60405180910390f35b3480156101e957600080fd5b5061020460048036038101906101ff919061236a565b610707565b005b34801561021257600080fd5b5061022d6004803603810190610228919061236a565b610805565b60405161023a919061216b565b60405180910390f35b34801561024f57600080fd5b5061026a6004803603810190610265919061233d565b610825565b604051610277919061216b565b60405180910390f35b34801561028c57600080fd5b50610295610845565b005b3480156102a357600080fd5b506102be60048036038101906102b991906123fc565b6109da565b6040516102cb9190612470565b60405180910390f35b3480156102e057600080fd5b506102fb60048036038101906102f691906123fc565b610e97565b6040516103089190612470565b60405180910390f35b34801561031d57600080fd5b50610338600480360381019061033391906124af565b61113c565b005b34801561034657600080fd5b5061034f6111e1565b60405161035c9190612507565b60405180910390f35b34801561037157600080fd5b5061038c6004803603810190610387919061254e565b61120a565b005b34801561039a57600080fd5b506103a3611255565b6040516103b09190612507565b60405180910390f35b3480156103c557600080fd5b506103e060048036038101906103db919061254e565b61127d565b005b3480156103ee57600080fd5b506104096004803603810190610404919061258e565b6112c8565b005b34801561041757600080fd5b50610432600480360381019061042d919061236a565b61132b565b005b60007f85572ffb000000000000000000000000000000000000000000000000000000007bffffffffffffffffffffffffffffffffffffffffffffffffffffffff1916827bffffffffffffffffffffffffffffffffffffffffffffffffffffffff191614806104ff57507f01ffc9a7000000000000000000000000000000000000000000000000000000007bffffffffffffffffffffffffffffffffffffffffffffffffffffffff1916827bffffffffffffffffffffffffffffffffffffffffffffffffffffffff1916145b9050919050565b60006060600354600480805461051b906125fd565b80601f0160208091040260200160405190810160405280929190818152602001828054610547906125fd565b80156105945780601f1061056957610100808354040283529160200191610594565b820191906000526020600020905b81548152906001019060200180831161057757829003601f168201915b50505050509050915091509091565b6105ab61133f565b60008173ffffffffffffffffffffffffffffffffffffffff166370a08231306040518263ffffffff1660e01b81526004016105e69190612507565b602060405180830381865afa158015610603573d6000803e3d6000fd5b505050506040513d601f19601f820116820180604052508101906106279190612664565b905060008103610663576040517fd0d04f6000000000000000000000000000000000000000000000000000000000815260040160405180910390fd5b8173ffffffffffffffffffffffffffffffffffffffff1663a9059cbb84836040518363ffffffff1660e01b815260040161069e9291906126a0565b6020604051808303816000875af11580156106bd573d6000803e3d6000fd5b505050506040513d601f19601f820116820180604052508101906106e191906126de565b50505050565b60066020528060005260406000206000915054906101000a900460ff1681565b61070f61133f565b60004790506000810361074e576040517fd0d04f6000000000000000000000000000000000000000000000000000000000815260040160405180910390fd5b60008273ffffffffffffffffffffffffffffffffffffffff16826040516107749061273c565b60006040518083038185875af1925050503d80600081146107b1576040519150601f19603f3d011682016040523d82523d6000602084013e6107b6565b606091505b5050905080610800573383836040517f9d11f5630000000000000000000000000000000000000000000000000000000081526004016107f793929190612751565b60405180910390fd5b505050565b60076020528060005260406000206000915054906101000a900460ff1681565b60056020528060005260406000206000915054906101000a900460ff1681565b600160009054906101000a900473ffffffffffffffffffffffffffffffffffffffff1673ffffffffffffffffffffffffffffffffffffffff163373ffffffffffffffffffffffffffffffffffffffff16146108d5576040517f08c379a00000000000000000000000000000000000000000000000000000000081526004016108cc906127d4565b60405180910390fd5b60008060009054906101000a900473ffffffffffffffffffffffffffffffffffffffff169050336000806101000a81548173ffffffffffffffffffffffffffffffffffffffff021916908373ffffffffffffffffffffffffffffffffffffffff1602179055506000600160006101000a81548173ffffffffffffffffffffffffffffffffffffffff021916908373ffffffffffffffffffffffffffffffffffffffff1602179055503373ffffffffffffffffffffffffffffffffffffffff168173ffffffffffffffffffffffffffffffffffffffff167f8be0079c531659141344cd1fd0a4f28419497f9722a3daafe3b4186f6b6457e060405160405180910390a350565b60006109e461133f565b84600560008267ffffffffffffffff1667ffffffffffffffff16815260200190815260200160002060009054906101000a900460ff16610a5b57806040517f0a503cdb000000000000000000000000000000000000000000000000000000008152600401610a529190612803565b60405180910390fd5b6000610a8b868686600860009054906101000a900473ffffffffffffffffffffffffffffffffffffffff166113cf565b905060003073ffffffffffffffffffffffffffffffffffffffff1663b0f479a16040518163ffffffff1660e01b8152600401602060405180830381865afa158015610ada573d6000803e3d6000fd5b505050506040513d601f19601f82011682018060405250810190610afe9190612833565b905060008173ffffffffffffffffffffffffffffffffffffffff166320487ded8a856040518363ffffffff1660e01b8152600401610b3d929190612a3c565b602060405180830381865afa158015610b5a573d6000803e3d6000fd5b505050506040513d601f19601f82011682018060405250810190610b7e9190612664565b9050600860009054906101000a900473ffffffffffffffffffffffffffffffffffffffff1673ffffffffffffffffffffffffffffffffffffffff166370a08231306040518263ffffffff1660e01b8152600401610bdb9190612507565b602060405180830381865afa158015610bf8573d6000803e3d6000fd5b505050506040513d601f19601f82011682018060405250810190610c1c9190612664565b811115610cfd57600860009054906101000a900473ffffffffffffffffffffffffffffffffffffffff1673ffffffffffffffffffffffffffffffffffffffff166370a08231306040518263ffffffff1660e01b8152600401610c7e9190612507565b602060405180830381865afa158015610c9b573d6000803e3d6000fd5b505050506040513d601f19601f82011682018060405250810190610cbf9190612664565b816040517f8f0f4206000000000000000000000000000000000000000000000000000000008152600401610cf4929190612a6c565b60405180910390fd5b600860009054906101000a900473ffffffffffffffffffffffffffffffffffffffff1673ffffffffffffffffffffffffffffffffffffffff1663095ea7b383836040518363ffffffff1660e01b8152600401610d5a9291906126a0565b6020604051808303816000875af1158015610d79573d6000803e3d6000fd5b505050506040513d601f19601f82011682018060405250810190610d9d91906126de565b508173ffffffffffffffffffffffffffffffffffffffff166396f4e9f98a856040518363ffffffff1660e01b8152600401610dd9929190612a3c565b6020604051808303816000875af1158015610df8573d6000803e3d6000fd5b505050506040513d601f19601f82011682018060405250810190610e1c9190612ac1565b94508867ffffffffffffffff16857fd36445359b3c6e26c120659aef090ce0f2eb005cf9af450d11aa1225609b4f4d8a8a8a600860009054906101000a900473ffffffffffffffffffffffffffffffffffffffff1687604051610e83959493929190612b2a565b60405180910390a350505050949350505050565b6000610ea161133f565b84600560008267ffffffffffffffff1667ffffffffffffffff16815260200190815260200160002060009054906101000a900460ff16610f1857806040517f0a503cdb000000000000000000000000000000000000000000000000000000008152600401610f0f9190612803565b60405180910390fd5b6000610f2786868660006113cf565b905060003073ffffffffffffffffffffffffffffffffffffffff1663b0f479a16040518163ffffffff1660e01b8152600401602060405180830381865afa158015610f76573d6000803e3d6000fd5b505050506040513d601f19601f82011682018060405250810190610f9a9190612833565b905060008173ffffffffffffffffffffffffffffffffffffffff166320487ded8a856040518363ffffffff1660e01b8152600401610fd9929190612a3c565b602060405180830381865afa158015610ff6573d6000803e3d6000fd5b505050506040513d601f19601f8201168201806040525081019061101a9190612664565b9050478111156110635747816040517f8f0f420600000000000000000000000000000000000000000000000000000000815260040161105a929190612a6c565b60405180910390fd5b8173ffffffffffffffffffffffffffffffffffffffff166396f4e9f9828b866040518463ffffffff1660e01b815260040161109f929190612a3c565b60206040518083038185885af11580156110bd573d6000803e3d6000fd5b50505050506040513d601f19601f820116820180604052508101906110e29190612ac1565b94508867ffffffffffffffff16857fd36445359b3c6e26c120659aef090ce0f2eb005cf9af450d11aa1225609b4f4d8a8a8a600087604051611128959493929190612b2a565b60405180910390a350505050949350505050565b7f000000000000000000000000000000000000000000000000000000000000000073ffffffffffffffffffffffffffffffffffffffff163373ffffffffffffffffffffffffffffffffffffffff16146111cc57336040517fd7f733340000000000000000000000000000000000000000000000000000000081526004016111c39190612507565b60405180910390fd5b6111de816111d990612ec0565b6114cb565b50565b60008060009054906101000a900473ffffffffffffffffffffffffffffffffffffffff16905090565b61121261133f565b80600560008467ffffffffffffffff1667ffffffffffffffff16815260200190815260200160002060006101000a81548160ff0219169083151502179055505050565b60007f0000000000000000000000000000000000000000000000000000000000000000905090565b61128561133f565b80600660008467ffffffffffffffff1667ffffffffffffffff16815260200190815260200160002060006101000a81548160ff0219169083151502179055505050565b6112d061133f565b80600760008473ffffffffffffffffffffffffffffffffffffffff1673ffffffffffffffffffffffffffffffffffffffff16815260200190815260200160002060006101000a81548160ff0219169083151502179055505050565b61133361133f565b61133c81611894565b50565b60008054906101000a900473ffffffffffffffffffffffffffffffffffffffff1673ffffffffffffffffffffffffffffffffffffffff163373ffffffffffffffffffffffffffffffffffffffff16146113cd576040517f08c379a00000000000000000000000000000000000000000000000000000000081526004016113c490612f1f565b60405180910390fd5b565b6113d7612042565b6040518060a00160405280866040516020016113f39190612507565b6040516020818303038152906040528152602001858560405160200161141a929190612f3f565b6040516020818303038152906040528152602001600067ffffffffffffffff81111561144957611448612b7d565b5b60405190808252806020026020018201604052801561148257816020015b61146f612087565b8152602001906001900390816114675790505b5081526020018373ffffffffffffffffffffffffffffffffffffffff1681526020016114be604051806020016040528062030d408152506119c0565b8152509050949350505050565b806020015181604001518060200190518101906114e89190612fa1565b600660008367ffffffffffffffff1667ffffffffffffffff16815260200190815260200160002060009054906101000a900460ff1661155e57816040517f9afeb6440000000000000000000000000000000000000000000000000000000081526004016115559190612803565b60405180910390fd5b600760008273ffffffffffffffffffffffffffffffffffffffff1673ffffffffffffffffffffffffffffffffffffffff16815260200190815260200160002060009054906101000a900460ff166115ec57806040517f71811df20000000000000000000000000000000000000000000000000000000081526004016115e39190612507565b60405180910390fd5b8260000151600381905550826060015180602001905181019061160f919061306f565b6004908161161d9190613264565b5060006116bf6116ba60048054611633906125fd565b80601f016020809104026020016040519081016040528092919081815260200182805461165f906125fd565b80156116ac5780601f10611681576101008083540402835291602001916116ac565b820191906000526020600020905b81548152906001019060200180831161168f57829003601f168201915b50505050506000602a611a3f565b611b3b565b9050600061176f61176a600480546116d6906125fd565b80601f0160208091040260200160405190810160405280929190818152602001828054611702906125fd565b801561174f5780601f106117245761010080835404028352916020019161174f565b820191906000526020600020905b81548152906001019060200180831161173257829003601f168201915b5050505050602a60048054611763906125fd565b9050611a3f565b611e09565b9050600260009054906101000a900473ffffffffffffffffffffffffffffffffffffffff1673ffffffffffffffffffffffffffffffffffffffff1663a9059cbb83836040518363ffffffff1660e01b81526004016117ce9291906126a0565b6020604051808303816000875af11580156117ed573d6000803e3d6000fd5b505050506040513d601f19601f8201168201806040525081019061181191906126de565b50846020015167ffffffffffffffff1685600001517fb1e312a29937cc11967b0e4a346fef1ae132424ebaba9dc6d90249dba053e87c876040015180602001905181019061185f9190612fa1565b8860600151806020019051810190611877919061306f565b60405161188592919061338b565b60405180910390a35050505050565b3373ffffffffffffffffffffffffffffffffffffffff168173ffffffffffffffffffffffffffffffffffffffff1603611902576040517f08c379a00000000000000000000000000000000000000000000000000000000081526004016118f990613407565b60405180910390fd5b80600160006101000a81548173ffffffffffffffffffffffffffffffffffffffff021916908373ffffffffffffffffffffffffffffffffffffffff1602179055508073ffffffffffffffffffffffffffffffffffffffff1660008054906101000a900473ffffffffffffffffffffffffffffffffffffffff1673ffffffffffffffffffffffffffffffffffffffff167fed8889f560326eb138920d842192f0eb3dd22b4f139c87a2c57538e05bae127860405160405180910390a350565b60606397a657c960e01b826040516024016119db9190613443565b604051602081830303815290604052907bffffffffffffffffffffffffffffffffffffffffffffffffffffffff19166020820180517bffffffffffffffffffffffffffffffffffffffffffffffffffffffff83818316178352505050509050919050565b6060600084905060008484611a54919061348d565b67ffffffffffffffff811115611a6d57611a6c612b7d565b5b6040519080825280601f01601f191660200182016040528015611a9f5781602001600182028036833780820191505090505b50905060008590505b84811015611b2e57828181518110611ac357611ac26134c1565b5b602001015160f81c60f81b828783611adb919061348d565b81518110611aec57611aeb6134c1565b5b60200101907effffffffffffffffffffffffffffffffffffffffffffffffffffffffffffff1916908160001a9053508080611b26906134f0565b915050611aa8565b5080925050509392505050565b600080829050600080806000600290505b602a811015611dfc5761010084611b639190613538565b9350848181518110611b7857611b776134c1565b5b602001015160f81c60f81b60f81c60ff16925084600182611b99919061357a565b81518110611baa57611ba96134c1565b5b602001015160f81c60f81b60f81c60ff16915060618373ffffffffffffffffffffffffffffffffffffffff1610158015611bfb575060668373ffffffffffffffffffffffffffffffffffffffff1611155b15611c1457605783611c0d91906135ae565b9250611cc0565b60418373ffffffffffffffffffffffffffffffffffffffff1610158015611c52575060468373ffffffffffffffffffffffffffffffffffffffff1611155b15611c6b57603783611c6491906135ae565b9250611cbf565b60308373ffffffffffffffffffffffffffffffffffffffff1610158015611ca9575060398373ffffffffffffffffffffffffffffffffffffffff1611155b15611cbe57603083611cbb91906135ae565b92505b5b5b60618273ffffffffffffffffffffffffffffffffffffffff1610158015611cfe575060668273ffffffffffffffffffffffffffffffffffffffff1611155b15611d1757605782611d1091906135ae565b9150611dc3565b60418273ffffffffffffffffffffffffffffffffffffffff1610158015611d55575060468273ffffffffffffffffffffffffffffffffffffffff1611155b15611d6e57603782611d6791906135ae565b9150611dc2565b60308273ffffffffffffffffffffffffffffffffffffffff1610158015611dac575060398273ffffffffffffffffffffffffffffffffffffffff1611155b15611dc157603082611dbe91906135ae565b91505b5b5b81601084611dd19190613538565b611ddb91906135f6565b84611de691906135f6565b9350600281611df5919061357a565b9050611b4c565b5082945050505050919050565b6000808290506000805b8251811015612037576030838281518110611e3157611e306134c1565b5b602001015160f81c60f81b60f81c60ff1610158015611e7457506039838281518110611e6057611e5f6134c1565b5b602001015160f81c60f81b60f81c60ff1611155b15611eca57601082611e86919061363e565b91506030838281518110611e9d57611e9c6134c1565b5b602001015160f81c60f81b60f81c611eb5919061368d565b60ff1682611ec3919061357a565b9150612024565b6041838281518110611edf57611ede6134c1565b5b602001015160f81c60f81b60f81c60ff1610158015611f2257506046838281518110611f0e57611f0d6134c1565b5b602001015160f81c60f81b60f81c60ff1611155b15611f7857601082611f34919061363e565b91506037838281518110611f4b57611f4a6134c1565b5b602001015160f81c60f81b60f81c611f63919061368d565b60ff1682611f71919061357a565b9150612023565b6061838281518110611f8d57611f8c6134c1565b5b602001015160f81c60f81b60f81c60ff1610158015611fd057506066838281518110611fbc57611fbb6134c1565b5b602001015160f81c60f81b60f81c60ff1611155b1561202257601082611fe2919061363e565b91506057838281518110611ff957611ff86134c1565b5b602001015160f81c60f81b60f81c612011919061368d565b60ff168261201f919061357a565b91505b5b5b808061202f906134f0565b915050611e13565b508092505050919050565b6040518060a00160405280606081526020016060815260200160608152602001600073ffffffffffffffffffffffffffffffffffffffff168152602001606081525090565b6040518060400160405280600073ffffffffffffffffffffffffffffffffffffffff168152602001600081525090565b6000604051905090565b600080fd5b600080fd5b60007fffffffff0000000000000000000000000000000000000000000000000000000082169050919050565b612100816120cb565b811461210b57600080fd5b50565b60008135905061211d816120f7565b92915050565b600060208284031215612139576121386120c1565b5b60006121478482850161210e565b91505092915050565b60008115159050919050565b61216581612150565b82525050565b6000602082019050612180600083018461215c565b92915050565b6000819050919050565b61219981612186565b82525050565b600081519050919050565b600082825260208201905092915050565b60005b838110156121d95780820151818401526020810190506121be565b60008484015250505050565b6000601f19601f8301169050919050565b60006122018261219f565b61220b81856121aa565b935061221b8185602086016121bb565b612224816121e5565b840191505092915050565b60006040820190506122446000830185612190565b818103602083015261225681846121f6565b90509392505050565b600073ffffffffffffffffffffffffffffffffffffffff82169050919050565b600061228a8261225f565b9050919050565b61229a8161227f565b81146122a557600080fd5b50565b6000813590506122b781612291565b92915050565b600080604083850312156122d4576122d36120c1565b5b60006122e2858286016122a8565b92505060206122f3858286016122a8565b9150509250929050565b600067ffffffffffffffff82169050919050565b61231a816122fd565b811461232557600080fd5b50565b60008135905061233781612311565b92915050565b600060208284031215612353576123526120c1565b5b600061236184828501612328565b91505092915050565b6000602082840312156123805761237f6120c1565b5b600061238e848285016122a8565b91505092915050565b600080fd5b600080fd5b600080fd5b60008083601f8401126123bc576123bb612397565b5b8235905067ffffffffffffffff8111156123d9576123d861239c565b5b6020830191508360018202830111156123f5576123f46123a1565b5b9250929050565b60008060008060608587031215612416576124156120c1565b5b600061242487828801612328565b9450506020612435878288016122a8565b935050604085013567ffffffffffffffff811115612456576124556120c6565b5b612462878288016123a6565b925092505092959194509250565b60006020820190506124856000830184612190565b92915050565b600080fd5b600060a082840312156124a6576124a561248b565b5b81905092915050565b6000602082840312156124c5576124c46120c1565b5b600082013567ffffffffffffffff8111156124e3576124e26120c6565b5b6124ef84828501612490565b91505092915050565b6125018161227f565b82525050565b600060208201905061251c60008301846124f8565b92915050565b61252b81612150565b811461253657600080fd5b50565b60008135905061254881612522565b92915050565b60008060408385031215612565576125646120c1565b5b600061257385828601612328565b925050602061258485828601612539565b9150509250929050565b600080604083850312156125a5576125a46120c1565b5b60006125b3858286016122a8565b92505060206125c485828601612539565b9150509250929050565b7f4e487b7100000000000000000000000000000000000000000000000000000000600052602260045260246000fd5b6000600282049050600182168061261557607f821691505b602082108103612628576126276125ce565b5b50919050565b6000819050919050565b6126418161262e565b811461264c57600080fd5b50565b60008151905061265e81612638565b92915050565b60006020828403121561267a576126796120c1565b5b60006126888482850161264f565b91505092915050565b61269a8161262e565b82525050565b60006040820190506126b560008301856124f8565b6126c26020830184612691565b9392505050565b6000815190506126d881612522565b92915050565b6000602082840312156126f4576126f36120c1565b5b6000612702848285016126c9565b91505092915050565b600081905092915050565b50565b600061272660008361270b565b915061273182612716565b600082019050919050565b600061274782612719565b9150819050919050565b600060608201905061276660008301866124f8565b61277360208301856124f8565b6127806040830184612691565b949350505050565b7f4d7573742062652070726f706f736564206f776e657200000000000000000000600082015250565b60006127be6016836121aa565b91506127c982612788565b602082019050919050565b600060208201905081810360008301526127ed816127b1565b9050919050565b6127fd816122fd565b82525050565b600060208201905061281860008301846127f4565b92915050565b60008151905061282d81612291565b92915050565b600060208284031215612849576128486120c1565b5b60006128578482850161281e565b91505092915050565b600081519050919050565b600082825260208201905092915050565b600061288782612860565b612891818561286b565b93506128a18185602086016121bb565b6128aa816121e5565b840191505092915050565b600081519050919050565b600082825260208201905092915050565b6000819050602082019050919050565b6128ea8161227f565b82525050565b6128f98161262e565b82525050565b60408201600082015161291560008501826128e1565b50602082015161292860208501826128f0565b50505050565b600061293a83836128ff565b60408301905092915050565b6000602082019050919050565b600061295e826128b5565b61296881856128c0565b9350612973836128d1565b8060005b838110156129a457815161298b888261292e565b975061299683612946565b925050600181019050612977565b5085935050505092915050565b600060a08301600083015184820360008601526129ce828261287c565b915050602083015184820360208601526129e8828261287c565b91505060408301518482036040860152612a028282612953565b9150506060830151612a1760608601826128e1565b5060808301518482036080860152612a2f828261287c565b9150508091505092915050565b6000604082019050612a5160008301856127f4565b8181036020830152612a6381846129b1565b90509392505050565b6000604082019050612a816000830185612691565b612a8e6020830184612691565b9392505050565b612a9e81612186565b8114612aa957600080fd5b50565b600081519050612abb81612a95565b92915050565b600060208284031215612ad757612ad66120c1565b5b6000612ae584828501612aac565b91505092915050565b82818337600083830152505050565b6000612b0983856121aa565b9350612b16838584612aee565b612b1f836121e5565b840190509392505050565b6000608082019050612b3f60008301886124f8565b8181036020830152612b52818688612afd565b9050612b6160408301856124f8565b612b6e6060830184612691565b9695505050505050565b600080fd5b7f4e487b7100000000000000000000000000000000000000000000000000000000600052604160045260246000fd5b612bb5826121e5565b810181811067ffffffffffffffff82111715612bd457612bd3612b7d565b5b80604052505050565b6000612be76120b7565b9050612bf38282612bac565b919050565b600080fd5b600081359050612c0c81612a95565b92915050565b600080fd5b600067ffffffffffffffff821115612c3257612c31612b7d565b5b612c3b826121e5565b9050602081019050919050565b6000612c5b612c5684612c17565b612bdd565b905082815260208101848484011115612c7757612c76612c12565b5b612c82848285612aee565b509392505050565b600082601f830112612c9f57612c9e612397565b5b8135612caf848260208601612c48565b91505092915050565b600067ffffffffffffffff821115612cd357612cd2612b7d565b5b602082029050602081019050919050565b600081359050612cf381612638565b92915050565b600060408284031215612d0f57612d0e612b78565b5b612d196040612bdd565b90506000612d29848285016122a8565b6000830152506020612d3d84828501612ce4565b60208301525092915050565b6000612d5c612d5784612cb8565b612bdd565b90508083825260208201905060408402830185811115612d7f57612d7e6123a1565b5b835b81811015612da85780612d948882612cf9565b845260208401935050604081019050612d81565b5050509392505050565b600082601f830112612dc757612dc6612397565b5b8135612dd7848260208601612d49565b91505092915050565b600060a08284031215612df657612df5612b78565b5b612e0060a0612bdd565b90506000612e1084828501612bfd565b6000830152506020612e2484828501612328565b602083015250604082013567ffffffffffffffff811115612e4857612e47612bf8565b5b612e5484828501612c8a565b604083015250606082013567ffffffffffffffff811115612e7857612e77612bf8565b5b612e8484828501612c8a565b606083015250608082013567ffffffffffffffff811115612ea857612ea7612bf8565b5b612eb484828501612db2565b60808301525092915050565b6000612ecc3683612de0565b9050919050565b7f4f6e6c792063616c6c61626c65206279206f776e657200000000000000000000600082015250565b6000612f096016836121aa565b9150612f1482612ed3565b602082019050919050565b60006020820190508181036000830152612f3881612efc565b9050919050565b60006020820190508181036000830152612f5a818486612afd565b90509392505050565b6000612f6e8261225f565b9050919050565b612f7e81612f63565b8114612f8957600080fd5b50565b600081519050612f9b81612f75565b92915050565b600060208284031215612fb757612fb66120c1565b5b6000612fc584828501612f8c565b91505092915050565b600067ffffffffffffffff821115612fe957612fe8612b7d565b5b612ff2826121e5565b9050602081019050919050565b600061301261300d84612fce565b612bdd565b90508281526020810184848401111561302e5761302d612c12565b5b6130398482856121bb565b509392505050565b600082601f83011261305657613055612397565b5b8151613066848260208601612fff565b91505092915050565b600060208284031215613085576130846120c1565b5b600082015167ffffffffffffffff8111156130a3576130a26120c6565b5b6130af84828501613041565b91505092915050565b60008190508160005260206000209050919050565b60006020601f8301049050919050565b600082821b905092915050565b60006008830261311a7fffffffffffffffffffffffffffffffffffffffffffffffffffffffffffffffff826130dd565b61312486836130dd565b95508019841693508086168417925050509392505050565b6000819050919050565b600061316161315c6131578461262e565b61313c565b61262e565b9050919050565b6000819050919050565b61317b83613146565b61318f61318782613168565b8484546130ea565b825550505050565b600090565b6131a4613197565b6131af818484613172565b505050565b5b818110156131d3576131c860008261319c565b6001810190506131b5565b5050565b601f821115613218576131e9816130b8565b6131f2846130cd565b81016020851015613201578190505b61321561320d856130cd565b8301826131b4565b50505b505050565b600082821c905092915050565b600061323b6000198460080261321d565b1980831691505092915050565b6000613254838361322a565b9150826002028217905092915050565b61326d8261219f565b67ffffffffffffffff81111561328657613285612b7d565b5b61329082546125fd565b61329b8282856131d7565b600060209050601f8311600181146132ce57600084156132bc578287015190505b6132c68582613248565b86555061332e565b601f1984166132dc866130b8565b60005b82811015613304578489015182556001820191506020850194506020810190506132df565b86831015613321578489015161331d601f89168261322a565b8355505b6001600288020188555050505b505050505050565b600061335161334c6133478461225f565b61313c565b61225f565b9050919050565b600061336382613336565b9050919050565b600061337582613358565b9050919050565b6133858161336a565b82525050565b60006040820190506133a0600083018561337c565b81810360208301526133b281846121f6565b90509392505050565b7f43616e6e6f74207472616e7366657220746f2073656c66000000000000000000600082015250565b60006133f16017836121aa565b91506133fc826133bb565b602082019050919050565b60006020820190508181036000830152613420816133e4565b9050919050565b60208201600082015161343d60008501826128f0565b50505050565b60006020820190506134586000830184613427565b92915050565b7f4e487b7100000000000000000000000000000000000000000000000000000000600052601160045260246000fd5b60006134988261262e565b91506134a38361262e565b92508282039050818111156134bb576134ba61345e565b5b92915050565b7f4e487b7100000000000000000000000000000000000000000000000000000000600052603260045260246000fd5b60006134fb8261262e565b91507fffffffffffffffffffffffffffffffffffffffffffffffffffffffffffffffff820361352d5761352c61345e565b5b600182019050919050565b60006135438261225f565b915061354e8361225f565b925082820261355c8161225f565b915082820484148315176135735761357261345e565b5b5092915050565b60006135858261262e565b91506135908361262e565b92508282019050808211156135a8576135a761345e565b5b92915050565b60006135b98261225f565b91506135c48361225f565b9250828203905073ffffffffffffffffffffffffffffffffffffffff8111156135f0576135ef61345e565b5b92915050565b60006136018261225f565b915061360c8361225f565b9250828201905073ffffffffffffffffffffffffffffffffffffffff8111156136385761363761345e565b5b92915050565b60006136498261262e565b91506136548361262e565b92508282026136628161262e565b915082820484148315176136795761367861345e565b5b5092915050565b600060ff82169050919050565b600061369882613680565b91506136a383613680565b9250828203905060ff8111156136bc576136bb61345e565b5b9291505056fea264697066735822122053d8c4f5778c7eb5e6c35be125ef33ac9ea1eb10f4bbd4794c7e3bb881b88dbc64736f6c63430008140033",
  "linkReferences": {},
  "deployedLinkReferences": {}
}