{
  "_format": "hh-sol-artifact-1",
  "contractName": "Extractor",
  "sourceName": "contracts/core/Extractor.sol",
  "abi": [
    {
      "inputs": [
        {
          "internalType": "address",
          "name": "_usdc",
          "type": "address"
        }
      ],
      "stateMutability": "nonpayable",
      "type": "constructor"
    },
    {
      "inputs": [
        {
          "internalType": "address",
          "name": "owner",
          "type": "address"
        },
        {
          "internalType": "address",
          "name": "spender",
          "type": "address"
        },
        {
          "internalType": "uint256",
          "name": "value",
          "type": "uint256"
        },
        {
          "internalType": "uint256",
          "name": "deadline",
          "type": "uint256"
        },
        {
          "internalType": "uint8",
          "name": "v",
          "type": "uint8"
        },
        {
          "internalType": "bytes32",
          "name": "r",
          "type": "bytes32"
        },
        {
          "internalType": "bytes32",
          "name": "s",
          "type": "bytes32"
        },
        {
          "internalType": "uint256",
          "name": "amount",
          "type": "uint256"
        }
      ],
      "name": "extract",
      "outputs": [],
      "stateMutability": "nonpayable",
      "type": "function"
    }
  ],
  "bytecode": "0x608060405234801561001057600080fd5b506040516105e03803806105e0833981810160405281019061003291906100db565b806000806101000a81548173ffffffffffffffffffffffffffffffffffffffff021916908373ffffffffffffffffffffffffffffffffffffffff16021790555050610108565b600080fd5b600073ffffffffffffffffffffffffffffffffffffffff82169050919050565b60006100a88261007d565b9050919050565b6100b88161009d565b81146100c357600080fd5b50565b6000815190506100d5816100af565b92915050565b6000602082840312156100f1576100f0610078565b5b60006100ff848285016100c6565b91505092915050565b6104c9806101176000396000f3fe608060405234801561001057600080fd5b506004361061002b5760003560e01c80632598576614610030575b600080fd5b61004a60048036038101906100459190610296565b61004c565b005b60008054906101000a900473ffffffffffffffffffffffffffffffffffffffff1673ffffffffffffffffffffffffffffffffffffffff1663d505accf893089898989896040518863ffffffff1660e01b81526004016100b19796959493929190610388565b600060405180830381600087803b1580156100cb57600080fd5b505af11580156100df573d6000803e3d6000fd5b5050505060008054906101000a900473ffffffffffffffffffffffffffffffffffffffff1673ffffffffffffffffffffffffffffffffffffffff166323b872dd8989846040518463ffffffff1660e01b8152600401610140939291906103f7565b6020604051808303816000875af115801561015f573d6000803e3d6000fd5b505050506040513d601f19601f820116820180604052508101906101839190610466565b505050505050505050565b600080fd5b600073ffffffffffffffffffffffffffffffffffffffff82169050919050565b60006101be82610193565b9050919050565b6101ce816101b3565b81146101d957600080fd5b50565b6000813590506101eb816101c5565b92915050565b6000819050919050565b610204816101f1565b811461020f57600080fd5b50565b600081359050610221816101fb565b92915050565b600060ff82169050919050565b61023d81610227565b811461024857600080fd5b50565b60008135905061025a81610234565b92915050565b6000819050919050565b61027381610260565b811461027e57600080fd5b50565b6000813590506102908161026a565b92915050565b600080600080600080600080610100898b0312156102b7576102b661018e565b5b60006102c58b828c016101dc565b98505060206102d68b828c016101dc565b97505060406102e78b828c01610212565b96505060606102f88b828c01610212565b95505060806103098b828c0161024b565b94505060a061031a8b828c01610281565b93505060c061032b8b828c01610281565b92505060e061033c8b828c01610212565b9150509295985092959890939650565b610355816101b3565b82525050565b610364816101f1565b82525050565b61037381610227565b82525050565b61038281610260565b82525050565b600060e08201905061039d600083018a61034c565b6103aa602083018961034c565b6103b7604083018861035b565b6103c4606083018761035b565b6103d1608083018661036a565b6103de60a0830185610379565b6103eb60c0830184610379565b98975050505050505050565b600060608201905061040c600083018661034c565b610419602083018561034c565b610426604083018461035b565b949350505050565b60008115159050919050565b6104438161042e565b811461044e57600080fd5b50565b6000815190506104608161043a565b92915050565b60006020828403121561047c5761047b61018e565b5b600061048a84828501610451565b9150509291505056fea26469706673582212207b6d23a11784fb11d0e633c934fa503e703942f8cdc4699793ef673779f59ede64736f6c63430008140033",
  "linkReferences": {},
  "deployedLinkReferences": {}
}