{
  "_format": "hh-sol-artifact-1",
  "contractName": "EntryPoint",
  "sourceName": "@account-abstraction/contracts/core/EntryPoint.sol",
  "abi": [
    {
      "inputs": [
        {
          "internalType": "uint256",
          "name": "preOpGas",
          "type": "uint256"
        },
        {
          "internalType": "uint256",
          "name": "paid",
          "type": "uint256"
        },
        {
          "internalType": "uint48",
          "name": "validAfter",
          "type": "uint48"
        },
        {
          "internalType": "uint48",
          "name": "validUntil",
          "type": "uint48"
        },
        {
          "internalType": "bool",
          "name": "targetSuccess",
          "type": "bool"
        },
        {
          "internalType": "bytes",
          "name": "targetResult",
          "type": "bytes"
        }
      ],
      "name": "ExecutionResult",
      "type": "error"
    },
    {
      "inputs": [
        {
          "internalType": "uint256",
          "name": "opIndex",
          "type": "uint256"
        },
        {
          "internalType": "string",
          "name": "reason",
          "type": "string"
        }
      ],
      "name": "FailedOp",
      "type": "error"
    },
    {
      "inputs": [],
      "name": "ReentrancyGuardReentrantCall",
      "type": "error"
    },
    {
      "inputs": [
        {
          "internalType": "address",
          "name": "sender",
          "type": "address"
        }
      ],
      "name": "SenderAddressResult",
      "type": "error"
    },
    {
      "inputs": [
        {
          "internalType": "address",
          "name": "aggregator",
          "type": "address"
        }
      ],
      "name": "SignatureValidationFailed",
      "type": "error"
    },
    {
      "inputs": [
        {
          "components": [
            {
              "internalType": "uint256",
              "name": "preOpGas",
              "type": "uint256"
            },
            {
              "internalType": "uint256",
              "name": "prefund",
              "type": "uint256"
            },
            {
              "internalType": "bool",
              "name": "sigFailed",
              "type": "bool"
            },
            {
              "internalType": "uint48",
              "name": "validAfter",
              "type": "uint48"
            },
            {
              "internalType": "uint48",
              "name": "validUntil",
              "type": "uint48"
            },
            {
              "internalType": "bytes",
              "name": "paymasterContext",
              "type": "bytes"
            }
          ],
          "internalType": "struct IEntryPoint.ReturnInfo",
          "name": "returnInfo",
          "type": "tuple"
        },
        {
          "components": [
            {
              "internalType": "uint256",
              "name": "stake",
              "type": "uint256"
            },
            {
              "internalType": "uint256",
              "name": "unstakeDelaySec",
              "type": "uint256"
            }
          ],
          "internalType": "struct IStakeManager.StakeInfo",
          "name": "senderInfo",
          "type": "tuple"
        },
        {
          "components": [
            {
              "internalType": "uint256",
              "name": "stake",
              "type": "uint256"
            },
            {
              "internalType": "uint256",
              "name": "unstakeDelaySec",
              "type": "uint256"
            }
          ],
          "internalType": "struct IStakeManager.StakeInfo",
          "name": "factoryInfo",
          "type": "tuple"
        },
        {
          "components": [
            {
              "internalType": "uint256",
              "name": "stake",
              "type": "uint256"
            },
            {
              "internalType": "uint256",
              "name": "unstakeDelaySec",
              "type": "uint256"
            }
          ],
          "internalType": "struct IStakeManager.StakeInfo",
          "name": "paymasterInfo",
          "type": "tuple"
        }
      ],
      "name": "ValidationResult",
      "type": "error"
    },
    {
      "inputs": [
        {
          "components": [
            {
              "internalType": "uint256",
              "name": "preOpGas",
              "type": "uint256"
            },
            {
              "internalType": "uint256",
              "name": "prefund",
              "type": "uint256"
            },
            {
              "internalType": "bool",
              "name": "sigFailed",
              "type": "bool"
            },
            {
              "internalType": "uint48",
              "name": "validAfter",
              "type": "uint48"
            },
            {
              "internalType": "uint48",
              "name": "validUntil",
              "type": "uint48"
            },
            {
              "internalType": "bytes",
              "name": "paymasterContext",
              "type": "bytes"
            }
          ],
          "internalType": "struct IEntryPoint.ReturnInfo",
          "name": "returnInfo",
          "type": "tuple"
        },
        {
          "components": [
            {
              "internalType": "uint256",
              "name": "stake",
              "type": "uint256"
            },
            {
              "internalType": "uint256",
              "name": "unstakeDelaySec",
              "type": "uint256"
            }
          ],
          "internalType": "struct IStakeManager.StakeInfo",
          "name": "senderInfo",
          "type": "tuple"
        },
        {
          "components": [
            {
              "internalType": "uint256",
              "name": "stake",
              "type": "uint256"
            },
            {
              "internalType": "uint256",
              "name": "unstakeDelaySec",
              "type": "uint256"
            }
          ],
          "internalType": "struct IStakeManager.StakeInfo",
          "name": "factoryInfo",
          "type": "tuple"
        },
        {
          "components": [
            {
              "internalType": "uint256",
              "name": "stake",
              "type": "uint256"
            },
            {
              "internalType": "uint256",
              "name": "unstakeDelaySec",
              "type": "uint256"
            }
          ],
          "internalType": "struct IStakeManager.StakeInfo",
          "name": "paymasterInfo",
          "type": "tuple"
        },
        {
          "components": [
            {
              "internalType": "address",
              "name": "aggregator",
              "type": "address"
            },
            {
              "components": [
                {
                  "internalType": "uint256",
                  "name": "stake",
                  "type": "uint256"
                },
                {
                  "internalType": "uint256",
                  "name": "unstakeDelaySec",
                  "type": "uint256"
                }
              ],
              "internalType": "struct IStakeManager.StakeInfo",
              "name": "stakeInfo",
              "type": "tuple"
            }
          ],
          "internalType": "struct IEntryPoint.AggregatorStakeInfo",
          "name": "aggregatorInfo",
          "type": "tuple"
        }
      ],
      "name": "ValidationResultWithAggregation",
      "type": "error"
    },
    {
      "anonymous": false,
      "inputs": [
        {
          "indexed": true,
          "internalType": "bytes32",
          "name": "userOpHash",
          "type": "bytes32"
        },
        {
          "indexed": true,
          "internalType": "address",
          "name": "sender",
          "type": "address"
        },
        {
          "indexed": false,
          "internalType": "address",
          "name": "factory",
          "type": "address"
        },
        {
          "indexed": false,
          "internalType": "address",
          "name": "paymaster",
          "type": "address"
        }
      ],
      "name": "AccountDeployed",
      "type": "event"
    },
    {
      "anonymous": false,
      "inputs": [],
      "name": "BeforeExecution",
      "type": "event"
    },
    {
      "anonymous": false,
      "inputs": [
        {
          "indexed": true,
          "internalType": "address",
          "name": "account",
          "type": "address"
        },
        {
          "indexed": false,
          "internalType": "uint256",
          "name": "totalDeposit",
          "type": "uint256"
        }
      ],
      "name": "Deposited",
      "type": "event"
    },
    {
      "anonymous": false,
      "inputs": [
        {
          "indexed": true,
          "internalType": "address",
          "name": "aggregator",
          "type": "address"
        }
      ],
      "name": "SignatureAggregatorChanged",
      "type": "event"
    },
    {
      "anonymous": false,
      "inputs": [
        {
          "indexed": true,
          "internalType": "address",
          "name": "account",
          "type": "address"
        },
        {
          "indexed": false,
          "internalType": "uint256",
          "name": "totalStaked",
          "type": "uint256"
        },
        {
          "indexed": false,
          "internalType": "uint256",
          "name": "unstakeDelaySec",
          "type": "uint256"
        }
      ],
      "name": "StakeLocked",
      "type": "event"
    },
    {
      "anonymous": false,
      "inputs": [
        {
          "indexed": true,
          "internalType": "address",
          "name": "account",
          "type": "address"
        },
        {
          "indexed": false,
          "internalType": "uint256",
          "name": "withdrawTime",
          "type": "uint256"
        }
      ],
      "name": "StakeUnlocked",
      "type": "event"
    },
    {
      "anonymous": false,
      "inputs": [
        {
          "indexed": true,
          "internalType": "address",
          "name": "account",
          "type": "address"
        },
        {
          "indexed": false,
          "internalType": "address",
          "name": "withdrawAddress",
          "type": "address"
        },
        {
          "indexed": false,
          "internalType": "uint256",
          "name": "amount",
          "type": "uint256"
        }
      ],
      "name": "StakeWithdrawn",
      "type": "event"
    },
    {
      "anonymous": false,
      "inputs": [
        {
          "indexed": true,
          "internalType": "bytes32",
          "name": "userOpHash",
          "type": "bytes32"
        },
        {
          "indexed": true,
          "internalType": "address",
          "name": "sender",
          "type": "address"
        },
        {
          "indexed": true,
          "internalType": "address",
          "name": "paymaster",
          "type": "address"
        },
        {
          "indexed": false,
          "internalType": "uint256",
          "name": "nonce",
          "type": "uint256"
        },
        {
          "indexed": false,
          "internalType": "bool",
          "name": "success",
          "type": "bool"
        },
        {
          "indexed": false,
          "internalType": "uint256",
          "name": "actualGasCost",
          "type": "uint256"
        },
        {
          "indexed": false,
          "internalType": "uint256",
          "name": "actualGasUsed",
          "type": "uint256"
        }
      ],
      "name": "UserOperationEvent",
      "type": "event"
    },
    {
      "anonymous": false,
      "inputs": [
        {
          "indexed": true,
          "internalType": "bytes32",
          "name": "userOpHash",
          "type": "bytes32"
        },
        {
          "indexed": true,
          "internalType": "address",
          "name": "sender",
          "type": "address"
        },
        {
          "indexed": false,
          "internalType": "uint256",
          "name": "nonce",
          "type": "uint256"
        },
        {
          "indexed": false,
          "internalType": "bytes",
          "name": "revertReason",
          "type": "bytes"
        }
      ],
      "name": "UserOperationRevertReason",
      "type": "event"
    },
    {
      "anonymous": false,
      "inputs": [
        {
          "indexed": true,
          "internalType": "address",
          "name": "account",
          "type": "address"
        },
        {
          "indexed": false,
          "internalType": "address",
          "name": "withdrawAddress",
          "type": "address"
        },
        {
          "indexed": false,
          "internalType": "uint256",
          "name": "amount",
          "type": "uint256"
        }
      ],
      "name": "Withdrawn",
      "type": "event"
    },
    {
      "inputs": [],
      "name": "SIG_VALIDATION_FAILED",
      "outputs": [
        {
          "internalType": "uint256",
          "name": "",
          "type": "uint256"
        }
      ],
      "stateMutability": "view",
      "type": "function"
    },
    {
      "inputs": [
        {
          "internalType": "bytes",
          "name": "initCode",
          "type": "bytes"
        },
        {
          "internalType": "address",
          "name": "sender",
          "type": "address"
        },
        {
          "internalType": "bytes",
          "name": "paymasterAndData",
          "type": "bytes"
        }
      ],
      "name": "_validateSenderAndPaymaster",
      "outputs": [],
      "stateMutability": "view",
      "type": "function"
    },
    {
      "inputs": [
        {
          "internalType": "uint32",
          "name": "unstakeDelaySec",
          "type": "uint32"
        }
      ],
      "name": "addStake",
      "outputs": [],
      "stateMutability": "payable",
      "type": "function"
    },
    {
      "inputs": [
        {
          "internalType": "address",
          "name": "account",
          "type": "address"
        }
      ],
      "name": "balanceOf",
      "outputs": [
        {
          "internalType": "uint256",
          "name": "",
          "type": "uint256"
        }
      ],
      "stateMutability": "view",
      "type": "function"
    },
    {
      "inputs": [
        {
          "internalType": "address",
          "name": "account",
          "type": "address"
        }
      ],
      "name": "depositTo",
      "outputs": [],
      "stateMutability": "payable",
      "type": "function"
    },
    {
      "inputs": [
        {
          "internalType": "address",
          "name": "",
          "type": "address"
        }
      ],
      "name": "deposits",
      "outputs": [
        {
          "internalType": "uint112",
          "name": "deposit",
          "type": "uint112"
        },
        {
          "internalType": "bool",
          "name": "staked",
          "type": "bool"
        },
        {
          "internalType": "uint112",
          "name": "stake",
          "type": "uint112"
        },
        {
          "internalType": "uint32",
          "name": "unstakeDelaySec",
          "type": "uint32"
        },
        {
          "internalType": "uint48",
          "name": "withdrawTime",
          "type": "uint48"
        }
      ],
      "stateMutability": "view",
      "type": "function"
    },
    {
      "inputs": [
        {
          "internalType": "address",
          "name": "account",
          "type": "address"
        }
      ],
      "name": "getDepositInfo",
      "outputs": [
        {
          "components": [
            {
              "internalType": "uint112",
              "name": "deposit",
              "type": "uint112"
            },
            {
              "internalType": "bool",
              "name": "staked",
              "type": "bool"
            },
            {
              "internalType": "uint112",
              "name": "stake",
              "type": "uint112"
            },
            {
              "internalType": "uint32",
              "name": "unstakeDelaySec",
              "type": "uint32"
            },
            {
              "internalType": "uint48",
              "name": "withdrawTime",
              "type": "uint48"
            }
          ],
          "internalType": "struct IStakeManager.DepositInfo",
          "name": "info",
          "type": "tuple"
        }
      ],
      "stateMutability": "view",
      "type": "function"
    },
    {
      "inputs": [
        {
          "internalType": "address",
          "name": "sender",
          "type": "address"
        },
        {
          "internalType": "uint192",
          "name": "key",
          "type": "uint192"
        }
      ],
      "name": "getNonce",
      "outputs": [
        {
          "internalType": "uint256",
          "name": "nonce",
          "type": "uint256"
        }
      ],
      "stateMutability": "view",
      "type": "function"
    },
    {
      "inputs": [
        {
          "internalType": "bytes",
          "name": "initCode",
          "type": "bytes"
        }
      ],
      "name": "getSenderAddress",
      "outputs": [],
      "stateMutability": "nonpayable",
      "type": "function"
    },
    {
      "inputs": [
        {
          "components": [
            {
              "internalType": "address",
              "name": "sender",
              "type": "address"
            },
            {
              "internalType": "uint256",
              "name": "nonce",
              "type": "uint256"
            },
            {
              "internalType": "bytes",
              "name": "initCode",
              "type": "bytes"
            },
            {
              "internalType": "bytes",
              "name": "callData",
              "type": "bytes"
            },
            {
              "internalType": "uint256",
              "name": "callGasLimit",
              "type": "uint256"
            },
            {
              "internalType": "uint256",
              "name": "verificationGasLimit",
              "type": "uint256"
            },
            {
              "internalType": "uint256",
              "name": "preVerificationGas",
              "type": "uint256"
            },
            {
              "internalType": "uint256",
              "name": "maxFeePerGas",
              "type": "uint256"
            },
            {
              "internalType": "uint256",
              "name": "maxPriorityFeePerGas",
              "type": "uint256"
            },
            {
              "internalType": "bytes",
              "name": "paymasterAndData",
              "type": "bytes"
            },
            {
              "internalType": "bytes",
              "name": "signature",
              "type": "bytes"
            }
          ],
          "internalType": "struct UserOperation",
          "name": "userOp",
          "type": "tuple"
        }
      ],
      "name": "getUserOpHash",
      "outputs": [
        {
          "internalType": "bytes32",
          "name": "",
          "type": "bytes32"
        }
      ],
      "stateMutability": "view",
      "type": "function"
    },
    {
      "inputs": [
        {
          "components": [
            {
              "components": [
                {
                  "internalType": "address",
                  "name": "sender",
                  "type": "address"
                },
                {
                  "internalType": "uint256",
                  "name": "nonce",
                  "type": "uint256"
                },
                {
                  "internalType": "bytes",
                  "name": "initCode",
                  "type": "bytes"
                },
                {
                  "internalType": "bytes",
                  "name": "callData",
                  "type": "bytes"
                },
                {
                  "internalType": "uint256",
                  "name": "callGasLimit",
                  "type": "uint256"
                },
                {
                  "internalType": "uint256",
                  "name": "verificationGasLimit",
                  "type": "uint256"
                },
                {
                  "internalType": "uint256",
                  "name": "preVerificationGas",
                  "type": "uint256"
                },
                {
                  "internalType": "uint256",
                  "name": "maxFeePerGas",
                  "type": "uint256"
                },
                {
                  "internalType": "uint256",
                  "name": "maxPriorityFeePerGas",
                  "type": "uint256"
                },
                {
                  "internalType": "bytes",
                  "name": "paymasterAndData",
                  "type": "bytes"
                },
                {
                  "internalType": "bytes",
                  "name": "signature",
                  "type": "bytes"
                }
              ],
              "internalType": "struct UserOperation[]",
              "name": "userOps",
              "type": "tuple[]"
            },
            {
              "internalType": "contract IAggregator",
              "name": "aggregator",
              "type": "address"
            },
            {
              "internalType": "bytes",
              "name": "signature",
              "type": "bytes"
            }
          ],
          "internalType": "struct IEntryPoint.UserOpsPerAggregator[]",
          "name": "opsPerAggregator",
          "type": "tuple[]"
        },
        {
          "internalType": "address payable",
          "name": "beneficiary",
          "type": "address"
        }
      ],
      "name": "handleAggregatedOps",
      "outputs": [],
      "stateMutability": "nonpayable",
      "type": "function"
    },
    {
      "inputs": [
        {
          "components": [
            {
              "internalType": "address",
              "name": "sender",
              "type": "address"
            },
            {
              "internalType": "uint256",
              "name": "nonce",
              "type": "uint256"
            },
            {
              "internalType": "bytes",
              "name": "initCode",
              "type": "bytes"
            },
            {
              "internalType": "bytes",
              "name": "callData",
              "type": "bytes"
            },
            {
              "internalType": "uint256",
              "name": "callGasLimit",
              "type": "uint256"
            },
            {
              "internalType": "uint256",
              "name": "verificationGasLimit",
              "type": "uint256"
            },
            {
              "internalType": "uint256",
              "name": "preVerificationGas",
              "type": "uint256"
            },
            {
              "internalType": "uint256",
              "name": "maxFeePerGas",
              "type": "uint256"
            },
            {
              "internalType": "uint256",
              "name": "maxPriorityFeePerGas",
              "type": "uint256"
            },
            {
              "internalType": "bytes",
              "name": "paymasterAndData",
              "type": "bytes"
            },
            {
              "internalType": "bytes",
              "name": "signature",
              "type": "bytes"
            }
          ],
          "internalType": "struct UserOperation[]",
          "name": "ops",
          "type": "tuple[]"
        },
        {
          "internalType": "address payable",
          "name": "beneficiary",
          "type": "address"
        }
      ],
      "name": "handleOps",
      "outputs": [],
      "stateMutability": "nonpayable",
      "type": "function"
    },
    {
      "inputs": [
        {
          "internalType": "uint192",
          "name": "key",
          "type": "uint192"
        }
      ],
      "name": "incrementNonce",
      "outputs": [],
      "stateMutability": "nonpayable",
      "type": "function"
    },
    {
      "inputs": [
        {
          "internalType": "bytes",
          "name": "callData",
          "type": "bytes"
        },
        {
          "components": [
            {
              "components": [
                {
                  "internalType": "address",
                  "name": "sender",
                  "type": "address"
                },
                {
                  "internalType": "uint256",
                  "name": "nonce",
                  "type": "uint256"
                },
                {
                  "internalType": "uint256",
                  "name": "callGasLimit",
                  "type": "uint256"
                },
                {
                  "internalType": "uint256",
                  "name": "verificationGasLimit",
                  "type": "uint256"
                },
                {
                  "internalType": "uint256",
                  "name": "preVerificationGas",
                  "type": "uint256"
                },
                {
                  "internalType": "address",
                  "name": "paymaster",
                  "type": "address"
                },
                {
                  "internalType": "uint256",
                  "name": "maxFeePerGas",
                  "type": "uint256"
                },
                {
                  "internalType": "uint256",
                  "name": "maxPriorityFeePerGas",
                  "type": "uint256"
                }
              ],
              "internalType": "struct EntryPoint.MemoryUserOp",
              "name": "mUserOp",
              "type": "tuple"
            },
            {
              "internalType": "bytes32",
              "name": "userOpHash",
              "type": "bytes32"
            },
            {
              "internalType": "uint256",
              "name": "prefund",
              "type": "uint256"
            },
            {
              "internalType": "uint256",
              "name": "contextOffset",
              "type": "uint256"
            },
            {
              "internalType": "uint256",
              "name": "preOpGas",
              "type": "uint256"
            }
          ],
          "internalType": "struct EntryPoint.UserOpInfo",
          "name": "opInfo",
          "type": "tuple"
        },
        {
          "internalType": "bytes",
          "name": "context",
          "type": "bytes"
        }
      ],
      "name": "innerHandleOp",
      "outputs": [
        {
          "internalType": "uint256",
          "name": "actualGasCost",
          "type": "uint256"
        }
      ],
      "stateMutability": "nonpayable",
      "type": "function"
    },
    {
      "inputs": [
        {
          "internalType": "address",
          "name": "",
          "type": "address"
        },
        {
          "internalType": "uint192",
          "name": "",
          "type": "uint192"
        }
      ],
      "name": "nonceSequenceNumber",
      "outputs": [
        {
          "internalType": "uint256",
          "name": "",
          "type": "uint256"
        }
      ],
      "stateMutability": "view",
      "type": "function"
    },
    {
      "inputs": [
        {
          "components": [
            {
              "internalType": "address",
              "name": "sender",
              "type": "address"
            },
            {
              "internalType": "uint256",
              "name": "nonce",
              "type": "uint256"
            },
            {
              "internalType": "bytes",
              "name": "initCode",
              "type": "bytes"
            },
            {
              "internalType": "bytes",
              "name": "callData",
              "type": "bytes"
            },
            {
              "internalType": "uint256",
              "name": "callGasLimit",
              "type": "uint256"
            },
            {
              "internalType": "uint256",
              "name": "verificationGasLimit",
              "type": "uint256"
            },
            {
              "internalType": "uint256",
              "name": "preVerificationGas",
              "type": "uint256"
            },
            {
              "internalType": "uint256",
              "name": "maxFeePerGas",
              "type": "uint256"
            },
            {
              "internalType": "uint256",
              "name": "maxPriorityFeePerGas",
              "type": "uint256"
            },
            {
              "internalType": "bytes",
              "name": "paymasterAndData",
              "type": "bytes"
            },
            {
              "internalType": "bytes",
              "name": "signature",
              "type": "bytes"
            }
          ],
          "internalType": "struct UserOperation",
          "name": "op",
          "type": "tuple"
        },
        {
          "internalType": "address",
          "name": "target",
          "type": "address"
        },
        {
          "internalType": "bytes",
          "name": "targetCallData",
          "type": "bytes"
        }
      ],
      "name": "simulateHandleOp",
      "outputs": [],
      "stateMutability": "nonpayable",
      "type": "function"
    },
    {
      "inputs": [
        {
          "components": [
            {
              "internalType": "address",
              "name": "sender",
              "type": "address"
            },
            {
              "internalType": "uint256",
              "name": "nonce",
              "type": "uint256"
            },
            {
              "internalType": "bytes",
              "name": "initCode",
              "type": "bytes"
            },
            {
              "internalType": "bytes",
              "name": "callData",
              "type": "bytes"
            },
            {
              "internalType": "uint256",
              "name": "callGasLimit",
              "type": "uint256"
            },
            {
              "internalType": "uint256",
              "name": "verificationGasLimit",
              "type": "uint256"
            },
            {
              "internalType": "uint256",
              "name": "preVerificationGas",
              "type": "uint256"
            },
            {
              "internalType": "uint256",
              "name": "maxFeePerGas",
              "type": "uint256"
            },
            {
              "internalType": "uint256",
              "name": "maxPriorityFeePerGas",
              "type": "uint256"
            },
            {
              "internalType": "bytes",
              "name": "paymasterAndData",
              "type": "bytes"
            },
            {
              "internalType": "bytes",
              "name": "signature",
              "type": "bytes"
            }
          ],
          "internalType": "struct UserOperation",
          "name": "userOp",
          "type": "tuple"
        }
      ],
      "name": "simulateValidation",
      "outputs": [],
      "stateMutability": "nonpayable",
      "type": "function"
    },
    {
      "inputs": [],
      "name": "unlockStake",
      "outputs": [],
      "stateMutability": "nonpayable",
      "type": "function"
    },
    {
      "inputs": [
        {
          "internalType": "address payable",
          "name": "withdrawAddress",
          "type": "address"
        }
      ],
      "name": "withdrawStake",
      "outputs": [],
      "stateMutability": "nonpayable",
      "type": "function"
    },
    {
      "inputs": [
        {
          "internalType": "address payable",
          "name": "withdrawAddress",
          "type": "address"
        },
        {
          "internalType": "uint256",
          "name": "withdrawAmount",
          "type": "uint256"
        }
      ],
      "name": "withdrawTo",
      "outputs": [],
      "stateMutability": "nonpayable",
      "type": "function"
    },
    {
      "stateMutability": "payable",
      "type": "receive"
    }
  ],
  "bytecode": "0x60a060405260405162000012906200007e565b604051809103906000f0801580156200002f573d6000803e3d6000fd5b5073ffffffffffffffffffffffffffffffffffffffff1660809073ffffffffffffffffffffffffffffffffffffffff168152503480156200006f57600080fd5b5060016002819055506200008c565b61036280620074a583390190565b6080516173f6620000af600039600081816118750152613c3701526173f66000f3fe6080604052600436106101235760003560e01c80638f41ec5a116100a0578063bb9fe6bf11610064578063bb9fe6bf146103ff578063c23a5cea14610416578063d6383f941461043f578063ee21942314610468578063fc7e286d1461049157610133565b80638f41ec5a14610329578063957122ab146103545780639b249f691461037d578063a6193531146103a6578063b760faf9146103e357610133565b8063205c2878116100e7578063205c28781461022057806335567e1a146102495780634b1d7cf5146102865780635287ce12146102af57806370a08231146102ec57610133565b80630396cb60146101385780630bd28e3b146101545780631b2e01b81461017d5780631d732756146101ba5780631fad948c146101f757610133565b3661013357610131336104d2565b005b600080fd5b610152600480360381019061014d9190614089565b61058e565b005b34801561016057600080fd5b5061017b60048036038101906101769190614106565b610945565b005b34801561018957600080fd5b506101a4600480360381019061019f9190614191565b6109e2565b6040516101b191906141ea565b60405180910390f35b3480156101c657600080fd5b506101e160048036038101906101dc919061456d565b610a07565b6040516101ee91906141ea565b60405180910390f35b34801561020357600080fd5b5061021e60048036038101906102199190614693565b610bdb565b005b34801561022c57600080fd5b50610247600480360381019061024291906146f3565b610d6f565b005b34801561025557600080fd5b50610270600480360381019061026b9190614191565b610f94565b60405161027d91906141ea565b60405180910390f35b34801561029257600080fd5b506102ad60048036038101906102a89190614789565b611043565b005b3480156102bb57600080fd5b506102d660048036038101906102d191906147e9565b611578565b6040516102e391906148f2565b60405180910390f35b3480156102f857600080fd5b50610313600480360381019061030e91906147e9565b6116c5565b60405161032091906141ea565b60405180910390f35b34801561033557600080fd5b5061033e61173a565b60405161034b91906141ea565b60405180910390f35b34801561036057600080fd5b5061037b6004803603810190610376919061490d565b61173f565b005b34801561038957600080fd5b506103a4600480360381019061039f91906149a2565b611871565b005b3480156103b257600080fd5b506103cd60048036038101906103c89190614a14565b611950565b6040516103da9190614a6c565b60405180910390f35b6103fd60048036038101906103f891906147e9565b6104d2565b005b34801561040b57600080fd5b5061041461198c565b005b34801561042257600080fd5b5061043d60048036038101906104389190614a87565b611b3c565b005b34801561044b57600080fd5b5061046660048036038101906104619190614ab4565b611e3c565b005b34801561047457600080fd5b5061048f600480360381019061048a9190614a14565b611f8c565b005b34801561049d57600080fd5b506104b860048036038101906104b391906147e9565b612219565b6040516104c9959493929190614b80565b60405180910390f35b6104dc81346122b2565b60008060008373ffffffffffffffffffffffffffffffffffffffff1673ffffffffffffffffffffffffffffffffffffffff16815260200190815260200160002090508173ffffffffffffffffffffffffffffffffffffffff167f2da466a7b24304f47e87fa2e1e5a81b9831ce54fec19055ce277ca2f39ba42c48260000160009054906101000a90046dffffffffffffffffffffffffffff166040516105829190614c0e565b60405180910390a25050565b60008060003373ffffffffffffffffffffffffffffffffffffffff1673ffffffffffffffffffffffffffffffffffffffff168152602001908152602001600020905060008263ffffffff1611610619576040517f08c379a000000000000000000000000000000000000000000000000000000000815260040161061090614c86565b60405180910390fd5b8060010160009054906101000a900463ffffffff1663ffffffff168263ffffffff16101561067c576040517f08c379a000000000000000000000000000000000000000000000000000000000815260040161067390614cf2565b60405180910390fd5b60003482600001600f9054906101000a90046dffffffffffffffffffffffffffff166dffffffffffffffffffffffffffff166106b89190614d41565b9050600081116106fd576040517f08c379a00000000000000000000000000000000000000000000000000000000081526004016106f490614dc1565b60405180910390fd5b6dffffffffffffffffffffffffffff8016811115610750576040517f08c379a000000000000000000000000000000000000000000000000000000000815260040161074790614e2d565b60405180910390fd5b6040518060a001604052808360000160009054906101000a90046dffffffffffffffffffffffffffff166dffffffffffffffffffffffffffff168152602001600115158152602001826dffffffffffffffffffffffffffff1681526020018463ffffffff168152602001600065ffffffffffff168152506000803373ffffffffffffffffffffffffffffffffffffffff1673ffffffffffffffffffffffffffffffffffffffff16815260200190815260200160002060008201518160000160006101000a8154816dffffffffffffffffffffffffffff02191690836dffffffffffffffffffffffffffff160217905550602082015181600001600e6101000a81548160ff021916908315150217905550604082015181600001600f6101000a8154816dffffffffffffffffffffffffffff02191690836dffffffffffffffffffffffffffff16021790555060608201518160010160006101000a81548163ffffffff021916908363ffffffff16021790555060808201518160010160046101000a81548165ffffffffffff021916908365ffffffffffff1602179055509050503373ffffffffffffffffffffffffffffffffffffffff167fa5ae833d0bb1dcd632d98a8b70973e8516812898e19bf27b70071ebc8dc52c018285604051610938929190614e7e565b60405180910390a2505050565b600160003373ffffffffffffffffffffffffffffffffffffffff1673ffffffffffffffffffffffffffffffffffffffff16815260200190815260200160002060008277ffffffffffffffffffffffffffffffffffffffffffffffff1677ffffffffffffffffffffffffffffffffffffffffffffffff16815260200190815260200160002060008154809291906109da90614ea7565b919050555050565b6001602052816000526040600020602052806000526040600020600091509150505481565b6000805a90503073ffffffffffffffffffffffffffffffffffffffff163373ffffffffffffffffffffffffffffffffffffffff1614610a7b576040517f08c379a0000000000000000000000000000000000000000000000000000000008152600401610a7290614f3b565b60405180910390fd5b60008560000151905060008160400151905061138882606001518201015a1015610ac9577fdeaddead0000000000000000000000000000000000000000000000000000000060005260206000fd5b60008089511115610b6d576000610ae7846000015160008c866123c2565b905080610b6b576000610afb6108006123db565b9050600081511115610b6557846000015173ffffffffffffffffffffffffffffffffffffffff168a602001517f1c4fada7374c0a9ee8841fc38afe82932dc0f8e69012e927f061a8bae611a201876020015184604051610b5c929190614fda565b60405180910390a35b60019250505b505b600088608001515a8603019050610bcc6000838b8b8b8080601f016020809104026020016040519081016040528093929190818152602001838380828437600081840152601f19601f820116905080830192505050505050508561240b565b95505050505050949350505050565b610be3612782565b600083839050905060008167ffffffffffffffff811115610c0757610c06614220565b5b604051908082528060200260200182016040528015610c4057816020015b610c2d613ed0565b815260200190600190039081610c255790505b50905060005b82811015610cc0576000828281518110610c6357610c6261500a565b5b60200260200101519050600080610c9f848a8a87818110610c8757610c8661500a565b5b9050602002810190610c999190615048565b856127c6565b91509150610cb084838360006129c3565b5050508080600101915050610c46565b5060007fbb47ee3e183a558b1a2ff0874b079f3fc5478b7454eacf2bfc5af2ff5878f97260405160405180910390a160005b83811015610d5457610d4381888884818110610d1157610d1061500a565b5b9050602002810190610d239190615048565b858481518110610d3657610d3561500a565b5b6020026020010151612b56565b820191508080600101915050610cf2565b50610d5f8482612caf565b505050610d6a612dcf565b505050565b60008060003373ffffffffffffffffffffffffffffffffffffffff1673ffffffffffffffffffffffffffffffffffffffff16815260200190815260200160002090508060000160009054906101000a90046dffffffffffffffffffffffffffff166dffffffffffffffffffffffffffff16821115610e22576040517f08c379a0000000000000000000000000000000000000000000000000000000008152600401610e19906150bd565b60405180910390fd5b818160000160009054906101000a90046dffffffffffffffffffffffffffff166dffffffffffffffffffffffffffff16610e5c91906150dd565b8160000160006101000a8154816dffffffffffffffffffffffffffff02191690836dffffffffffffffffffffffffffff1602179055503373ffffffffffffffffffffffffffffffffffffffff167fd1c19fbcd4551a5edfb66d43d2e337c04837afda3482b42bdf569a8fccdae5fb8484604051610eda929190615166565b60405180910390a260008373ffffffffffffffffffffffffffffffffffffffff1683604051610f08906151c0565b60006040518083038185875af1925050503d8060008114610f45576040519150601f19603f3d011682016040523d82523d6000602084013e610f4a565b606091505b5050905080610f8e576040517f08c379a0000000000000000000000000000000000000000000000000000000008152600401610f8590615221565b60405180910390fd5b50505050565b600060408277ffffffffffffffffffffffffffffffffffffffffffffffff16901b600160008573ffffffffffffffffffffffffffffffffffffffff1673ffffffffffffffffffffffffffffffffffffffff16815260200190815260200160002060008477ffffffffffffffffffffffffffffffffffffffffffffffff1677ffffffffffffffffffffffffffffffffffffffffffffffff1681526020019081526020016000205417905092915050565b61104b612782565b60008383905090506000805b8281101561123857368686838181106110735761107261500a565b5b90506020028101906110859190615241565b905036600082806000019061109a9190615269565b9150915060008360200160208101906110b3919061530a565b9050600173ffffffffffffffffffffffffffffffffffffffff168173ffffffffffffffffffffffffffffffffffffffff1603611124576040517f08c379a000000000000000000000000000000000000000000000000000000000815260040161111b90615383565b60405180910390fd5b600073ffffffffffffffffffffffffffffffffffffffff168173ffffffffffffffffffffffffffffffffffffffff1614611210578073ffffffffffffffffffffffffffffffffffffffff1663e3563a4f848487806040019061118691906153a3565b6040518563ffffffff1660e01b81526004016111a5949392919061576c565b60006040518083038186803b1580156111bd57600080fd5b505afa9250505080156111ce575060015b61120f57806040517f86a9f75000000000000000000000000000000000000000000000000000000000815260040161120691906157b6565b60405180910390fd5b5b828290508661121f9190614d41565b955050505050808061123090614ea7565b915050611057565b5060008167ffffffffffffffff81111561125557611254614220565b5b60405190808252806020026020018201604052801561128e57816020015b61127b613ed0565b8152602001906001900390816112735790505b5090507fbb47ee3e183a558b1a2ff0874b079f3fc5478b7454eacf2bfc5af2ff5878f97260405160405180910390a16000805b848110156113d057368888838181106112dd576112dc61500a565b5b90506020028101906112ef9190615241565b90503660008280600001906113049190615269565b91509150600083602001602081019061131d919061530a565b9050600083839050905060005b818110156113b75760008989815181106113475761134661500a565b5b602002602001015190506000806113838b89898781811061136b5761136a61500a565b5b905060200281019061137d9190615048565b856127c6565b91509150611393848383896129c3565b8a8061139e90614ea7565b9b505050505080806113af90614ea7565b91505061132a565b50505050505080806113c890614ea7565b9150506112c1565b50600080915060005b8581101561151757368989838181106113f5576113f461500a565b5b90506020028101906114079190615241565b905080602001602081019061141c919061530a565b73ffffffffffffffffffffffffffffffffffffffff167f575ff3acadd5ab348fe1855e217e0f3678f8d767d7494c9f9fefbee2e17cca4d60405160405180910390a23660008280600001906114719190615269565b91509150600082829050905060005b818110156114ff576114d18885858481811061149f5761149e61500a565b5b90506020028101906114b19190615048565b8b8b815181106114c4576114c361500a565b5b6020026020010151612b56565b876114dc9190614d41565b965087806114e990614ea7565b98505080806114f790614ea7565b915050611480565b5050505050808061150f90614ea7565b9150506113d9565b50600073ffffffffffffffffffffffffffffffffffffffff167f575ff3acadd5ab348fe1855e217e0f3678f8d767d7494c9f9fefbee2e17cca4d60405160405180910390a26115668682612caf565b5050505050611573612dcf565b505050565b611580613f08565b6000808373ffffffffffffffffffffffffffffffffffffffff1673ffffffffffffffffffffffffffffffffffffffff1681526020019081526020016000206040518060a00160405290816000820160009054906101000a90046dffffffffffffffffffffffffffff166dffffffffffffffffffffffffffff166dffffffffffffffffffffffffffff16815260200160008201600e9054906101000a900460ff1615151515815260200160008201600f9054906101000a90046dffffffffffffffffffffffffffff166dffffffffffffffffffffffffffff166dffffffffffffffffffffffffffff1681526020016001820160009054906101000a900463ffffffff1663ffffffff1663ffffffff1681526020016001820160049054906101000a900465ffffffffffff1665ffffffffffff1665ffffffffffff16815250509050919050565b60008060008373ffffffffffffffffffffffffffffffffffffffff1673ffffffffffffffffffffffffffffffffffffffff16815260200190815260200160002060000160009054906101000a90046dffffffffffffffffffffffffffff166dffffffffffffffffffffffffffff169050919050565b600181565b600085859050148015611769575060008373ffffffffffffffffffffffffffffffffffffffff163b145b156117a9576040517f08c379a00000000000000000000000000000000000000000000000000000000081526004016117a09061581d565b60405180910390fd5b6014828290501061183657600082826000906014926117ca93929190615847565b906117d591906158c6565b60601c905060008173ffffffffffffffffffffffffffffffffffffffff163b03611834576040517f08c379a000000000000000000000000000000000000000000000000000000000815260040161182b90615971565b60405180910390fd5b505b6040517f08c379a0000000000000000000000000000000000000000000000000000000008152600401611868906159b4565b60405180910390fd5b60007f000000000000000000000000000000000000000000000000000000000000000073ffffffffffffffffffffffffffffffffffffffff1663570e1a3684846040518363ffffffff1660e01b81526004016118ce9291906159d4565b6020604051808303816000875af11580156118ed573d6000803e3d6000fd5b505050506040513d601f19601f820116820180604052508101906119119190615a0d565b9050806040517f6ca7b80600000000000000000000000000000000000000000000000000000000815260040161194791906157b6565b60405180910390fd5b600061195b82612dd9565b304660405160200161196f93929190615a3a565b604051602081830303815290604052805190602001209050919050565b60008060003373ffffffffffffffffffffffffffffffffffffffff1673ffffffffffffffffffffffffffffffffffffffff168152602001908152602001600020905060008160010160009054906101000a900463ffffffff1663ffffffff1603611a2b576040517f08c379a0000000000000000000000000000000000000000000000000000000008152600401611a2290615abd565b60405180910390fd5b80600001600e9054906101000a900460ff16611a7c576040517f08c379a0000000000000000000000000000000000000000000000000000000008152600401611a7390615b29565b60405180910390fd5b60008160010160009054906101000a900463ffffffff1663ffffffff1642611aa49190615b49565b9050808260010160046101000a81548165ffffffffffff021916908365ffffffffffff160217905550600082600001600e6101000a81548160ff0219169083151502179055503373ffffffffffffffffffffffffffffffffffffffff167ffa9b3c14cc825c412c9ed81b3ba365a5b459439403f18829e572ed53a4180f0a82604051611b309190615bb4565b60405180910390a25050565b60008060003373ffffffffffffffffffffffffffffffffffffffff1673ffffffffffffffffffffffffffffffffffffffff1681526020019081526020016000209050600081600001600f9054906101000a90046dffffffffffffffffffffffffffff166dffffffffffffffffffffffffffff16905060008111611bf4576040517f08c379a0000000000000000000000000000000000000000000000000000000008152600401611beb90615c1b565b60405180910390fd5b60008260010160049054906101000a900465ffffffffffff1665ffffffffffff1611611c55576040517f08c379a0000000000000000000000000000000000000000000000000000000008152600401611c4c90615c87565b60405180910390fd5b428260010160049054906101000a900465ffffffffffff1665ffffffffffff161115611cb6576040517f08c379a0000000000000000000000000000000000000000000000000000000008152600401611cad90615cf3565b60405180910390fd5b60008260010160006101000a81548163ffffffff021916908363ffffffff16021790555060008260010160046101000a81548165ffffffffffff021916908365ffffffffffff160217905550600082600001600f6101000a8154816dffffffffffffffffffffffffffff02191690836dffffffffffffffffffffffffffff1602179055503373ffffffffffffffffffffffffffffffffffffffff167fb7c918e0e249f999e965cafeb6c664271b3f4317d296461500e71da39f0cbda38483604051611d82929190615166565b60405180910390a260008373ffffffffffffffffffffffffffffffffffffffff1682604051611db0906151c0565b60006040518083038185875af1925050503d8060008114611ded576040519150601f19603f3d011682016040523d82523d6000602084013e611df2565b606091505b5050905080611e36576040517f08c379a0000000000000000000000000000000000000000000000000000000008152600401611e2d90615d5f565b60405180910390fd5b50505050565b611e44613ed0565b611e4d85612df2565b600080611e5c600088856127c6565b915091506000611e6c8383612f1a565b9050611e7661302d565b6000611e8460008a87612b56565b9050611e8e61302d565b60006060600073ffffffffffffffffffffffffffffffffffffffff168a73ffffffffffffffffffffffffffffffffffffffff1614611f39578973ffffffffffffffffffffffffffffffffffffffff168989604051611eed929190615da4565b6000604051808303816000865af19150503d8060008114611f2a576040519150601f19603f3d011682016040523d82523d6000602084013e611f2f565b606091505b5080925081935050505b8660800151838560200151866040015185856040517f8b7ac980000000000000000000000000000000000000000000000000000000008152600401611f8396959493929190615dbd565b60405180910390fd5b611f94613ed0565b611f9d82612df2565b600080611fac600085856127c6565b915091506000611fc3846000015160a00151613033565b90506000611fd8856000015160000151613033565b9050611fe2613f67565b366000888060400190611ff591906153a3565b915091506000601483839050101561200e576000612031565b828260009060149261202293929190615847565b9061202d91906158c6565b60601c5b905061203c81613033565b9350505050600061204d8686612f1a565b90506000816000015190506000600173ffffffffffffffffffffffffffffffffffffffff168273ffffffffffffffffffffffffffffffffffffffff1614905060006040518060c001604052808b6080015181526020018b6040015181526020018315158152602001856020015165ffffffffffff168152602001856040015165ffffffffffff1681526020016120e68c606001516130df565b8152509050600073ffffffffffffffffffffffffffffffffffffffff168373ffffffffffffffffffffffffffffffffffffffff16141580156121555750600173ffffffffffffffffffffffffffffffffffffffff168373ffffffffffffffffffffffffffffffffffffffff1614155b156121d657600060405180604001604052808573ffffffffffffffffffffffffffffffffffffffff16815260200161218c86613033565b81525090508187878a846040517ffaecb4e40000000000000000000000000000000000000000000000000000000081526004016121cd959493929190615f74565b60405180910390fd5b808686896040517fe0cff05f0000000000000000000000000000000000000000000000000000000081526004016122109493929190615fcf565b60405180910390fd5b60006020528060005260406000206000915090508060000160009054906101000a90046dffffffffffffffffffffffffffff169080600001600e9054906101000a900460ff169080600001600f9054906101000a90046dffffffffffffffffffffffffffff16908060010160009054906101000a900463ffffffff16908060010160049054906101000a900465ffffffffffff16905085565b60008060008473ffffffffffffffffffffffffffffffffffffffff1673ffffffffffffffffffffffffffffffffffffffff16815260200190815260200160002090506000828260000160009054906101000a90046dffffffffffffffffffffffffffff166dffffffffffffffffffffffffffff166123309190614d41565b90506dffffffffffffffffffffffffffff8016811115612385576040517f08c379a000000000000000000000000000000000000000000000000000000000815260040161237c90616067565b60405180910390fd5b808260000160006101000a8154816dffffffffffffffffffffffffffff02191690836dffffffffffffffffffffffffffff16021790555050505050565b6000806000845160208601878987f19050949350505050565b60603d828111156123ea578290505b604051602082018101604052818152816000602083013e8092505050919050565b6000805a9050600080866000015190506000612426826130e9565b905060008260a001519050600073ffffffffffffffffffffffffffffffffffffffff168173ffffffffffffffffffffffffffffffffffffffff16036124715782600001519350612661565b80935060008851111561266057818702955060028081111561249657612495616087565b5b8a60028111156124a9576124a8616087565b5b14612528578073ffffffffffffffffffffffffffffffffffffffff1663a9a2340984606001518c8b8a6040518563ffffffff1660e01b81526004016124f0939291906160fe565b600060405180830381600088803b15801561250a57600080fd5b5087f115801561251e573d6000803e3d6000fd5b505050505061265f565b8073ffffffffffffffffffffffffffffffffffffffff1663a9a2340984606001518c8b8a6040518563ffffffff1660e01b815260040161256a939291906160fe565b600060405180830381600088803b15801561258457600080fd5b5087f193505050508015612596575060015b61265e576125a2616149565b806308c379a00361261f57506125b661616b565b806125c15750612621565b8b816040516020016125d39190616268565b6040516020818303038152906040526040517f220266b60000000000000000000000000000000000000000000000000000000081526004016126169291906162c7565b60405180910390fd5b505b8a6040517f220266b60000000000000000000000000000000000000000000000000000000081526004016126559190616343565b60405180910390fd5b5b5b5b5a850387019650818702955085896040015110156126b6578a6040517f220266b60000000000000000000000000000000000000000000000000000000081526004016126ad91906163bd565b60405180910390fd5b6000868a604001510390506126cb85826122b2565b60008060028111156126e0576126df616087565b5b8c60028111156126f3576126f2616087565b5b1490508460a0015173ffffffffffffffffffffffffffffffffffffffff16856000015173ffffffffffffffffffffffffffffffffffffffff168c602001517f49628fd1471006c1482da88028e9ce4dbb080b815c9b0344d39e5a8e6ec1419f8860200151858d8f60405161276a94939291906163eb565b60405180910390a45050505050505095945050505050565b60028054036127bd576040517f3ee5aeb500000000000000000000000000000000000000000000000000000000815260040160405180910390fd5b60028081905550565b60008060005a90506000846000015190506127e18682613123565b6127ea86611950565b85602001818152505060008661010001358760e001358360400151846060015185608001511717171790506effffffffffffffffffffffffffffff8016811115612869576040517f08c379a00000000000000000000000000000000000000000000000000000000081526004016128609061647c565b60405180910390fd5b600080612875846132cb565b90506128838a8a8a8461333c565b809850819350505061289d84600001518560200151613665565b6128de57896040517f220266b60000000000000000000000000000000000000000000000000000000081526004016128d591906164e8565b60405180910390fd5b6128e661302d565b6060600073ffffffffffffffffffffffffffffffffffffffff168560a0015173ffffffffffffffffffffffffffffffffffffffff16146129365761292d8b8b8b8587613723565b80985081925050505b60005a87039050808b60a001351015612986578b6040517f220266b600000000000000000000000000000000000000000000000000000000815260040161297d9190616562565b60405180910390fd5b828a6040018181525050612999826139e1565b8a60600181815250508a60c001355a8803018a608001818152505050505050505050935093915050565b6000806129cf856139eb565b915091508173ffffffffffffffffffffffffffffffffffffffff168373ffffffffffffffffffffffffffffffffffffffff1614612a4357856040517f220266b6000000000000000000000000000000000000000000000000000000008152600401612a3a91906165dc565b60405180910390fd5b8015612a8657856040517f220266b6000000000000000000000000000000000000000000000000000000008152600401612a7d9190616656565b60405180910390fd5b6000612a91856139eb565b8093508192505050600073ffffffffffffffffffffffffffffffffffffffff168173ffffffffffffffffffffffffffffffffffffffff1614612b0a57866040517f220266b6000000000000000000000000000000000000000000000000000000008152600401612b0191906166d0565b60405180910390fd5b8115612b4d57866040517f220266b6000000000000000000000000000000000000000000000000000000008152600401612b449190616770565b60405180910390fd5b50505050505050565b6000805a90506000612b6b84606001516130df565b90503073ffffffffffffffffffffffffffffffffffffffff16631d732756868060600190612b9991906153a3565b87856040518563ffffffff1660e01b8152600401612bba94939291906168bc565b6020604051808303816000875af1925050508015612bf657506040513d601f19601f82011682018060405250810190612bf3919061691a565b60015b612ca157600060206000803e60005190507fdeaddead000000000000000000000000000000000000000000000000000000008103612c6b57866040517f220266b6000000000000000000000000000000000000000000000000000000008152600401612c629190616993565b60405180910390fd5b600085608001515a85612c7e91906150dd565b612c889190614d41565b9050612c9888600288868561240b565b94505050612ca6565b809350505b50509392505050565b600073ffffffffffffffffffffffffffffffffffffffff168273ffffffffffffffffffffffffffffffffffffffff1603612d1e576040517f08c379a0000000000000000000000000000000000000000000000000000000008152600401612d1590616a0d565b60405180910390fd5b60008273ffffffffffffffffffffffffffffffffffffffff1682604051612d44906151c0565b60006040518083038185875af1925050503d8060008114612d81576040519150601f19603f3d011682016040523d82523d6000602084013e612d86565b606091505b5050905080612dca576040517f08c379a0000000000000000000000000000000000000000000000000000000008152600401612dc190616a79565b60405180910390fd5b505050565b6001600281905550565b6000612de482613a44565b805190602001209050919050565b3073ffffffffffffffffffffffffffffffffffffffff1663957122ab828060400190612e1e91906153a3565b846000016020810190612e3191906147e9565b85806101200190612e4291906153a3565b6040518663ffffffff1660e01b8152600401612e62959493929190616a99565b60006040518083038186803b158015612e7a57600080fd5b505afa925050508015612e8b575060015b612f1657612e97616149565b806308c379a003612f055750612eab61616b565b80612eb65750612f07565b6000815114612eff576000816040517f220266b6000000000000000000000000000000000000000000000000000000008152600401612ef6929190616b1d565b60405180910390fd5b50612f11565b505b3d6000803e3d6000fd5b612f17565b5b50565b612f22613f81565b6000612f2d84613b22565b90506000612f3a84613b22565b9050600082600001519050600073ffffffffffffffffffffffffffffffffffffffff168173ffffffffffffffffffffffffffffffffffffffff1603612f8157816000015190505b6000836020015190506000846040015190506000846020015190506000856040015190508165ffffffffffff168465ffffffffffff161015612fc1578193505b8065ffffffffffff168365ffffffffffff161115612fdd578092505b60405180606001604052808673ffffffffffffffffffffffffffffffffffffffff1681526020018565ffffffffffff1681526020018465ffffffffffff1681525097505050505050505092915050565b43600052565b61303b613f67565b60008060008473ffffffffffffffffffffffffffffffffffffffff1673ffffffffffffffffffffffffffffffffffffffff168152602001908152602001600020905080600001600f9054906101000a90046dffffffffffffffffffffffffffff166dffffffffffffffffffffffffffff168260000181815250508060010160009054906101000a900463ffffffff1663ffffffff1682602001818152505050919050565b6060819050919050565b6000808260c00151905060008360e00151905080820361310d57819250505061311e565b61311982488301613ba6565b925050505b919050565b81600001602081019061313691906147e9565b816000019073ffffffffffffffffffffffffffffffffffffffff16908173ffffffffffffffffffffffffffffffffffffffff1681525050816020013581602001818152505081608001358160400181815250508160a001358160600181815250508160c001358160800181815250508160e001358160c00181815250508161010001358160e0018181525050366000838061012001906131d691906153a3565b91509150600082829050111561328b57601482829050101561322d576040517f08c379a000000000000000000000000000000000000000000000000000000000815260040161322490616b99565b60405180910390fd5b818160009060149261324193929190615847565b9061324c91906158c6565b60601c8360a0019073ffffffffffffffffffffffffffffffffffffffff16908173ffffffffffffffffffffffffffffffffffffffff16815250506132c5565b60008360a0019073ffffffffffffffffffffffffffffffffffffffff16908173ffffffffffffffffffffffffffffffffffffffff16815250505b50505050565b600080600073ffffffffffffffffffffffffffffffffffffffff168360a0015173ffffffffffffffffffffffffffffffffffffffff160361330d576001613310565b60035b60ff16905060008360800151828560600151028560400151010190508360c00151810292505050919050565b60008060005a905060008560000151905060008160000151905061337089888a806040019061336b91906153a3565b613bbf565b60008260a00151905061338161302d565b60008073ffffffffffffffffffffffffffffffffffffffff168273ffffffffffffffffffffffffffffffffffffffff16036133d95760006133c1846116c5565b90508881116133d2578089036133d5565b60005b9150505b8273ffffffffffffffffffffffffffffffffffffffff16633a871cdd85606001518c8c60200151856040518563ffffffff1660e01b815260040161341f93929190616d1d565b60206040518083038160008887f19350505050801561345c57506040513d601f19601f82011682018060405250810190613459919061691a565b60015b61352457613468616149565b806308c379a0036134e5575061347c61616b565b8061348757506134e7565b8b816040516020016134999190616d81565b6040516020818303038152906040526040517f220266b60000000000000000000000000000000000000000000000000000000081526004016134dc9291906162c7565b60405180910390fd5b505b8a6040517f220266b600000000000000000000000000000000000000000000000000000000815260040161351b9190616df3565b60405180910390fd5b80965050600073ffffffffffffffffffffffffffffffffffffffff168273ffffffffffffffffffffffffffffffffffffffff16036136525760008060008573ffffffffffffffffffffffffffffffffffffffff1673ffffffffffffffffffffffffffffffffffffffff168152602001908152602001600020905060008160000160009054906101000a90046dffffffffffffffffffffffffffff166dffffffffffffffffffffffffffff169050808a1115613616578c6040517f220266b600000000000000000000000000000000000000000000000000000000815260040161360d9190616e6d565b60405180910390fd5b8981038260000160006101000a8154816dffffffffffffffffffffffffffff02191690836dffffffffffffffffffffffffffff16021790555050505b5a85039650505050505094509492505050565b600080604083901c905060008390508067ffffffffffffffff16600160008773ffffffffffffffffffffffffffffffffffffffff1673ffffffffffffffffffffffffffffffffffffffff16815260200190815260200160002060008477ffffffffffffffffffffffffffffffffffffffffffffffff1677ffffffffffffffffffffffffffffffffffffffffffffffff168152602001908152602001600020600081548092919061371490614ea7565b91905055149250505092915050565b60606000808560000151905060008160600151905084811161377a576040517f08c379a000000000000000000000000000000000000000000000000000000000815260040161377190616ee7565b60405180910390fd5b6000858203905060008360a00151905060008060008373ffffffffffffffffffffffffffffffffffffffff1673ffffffffffffffffffffffffffffffffffffffff168152602001908152602001600020905060008160000160009054906101000a90046dffffffffffffffffffffffffffff166dffffffffffffffffffffffffffff16905089811015613844578c6040517f220266b600000000000000000000000000000000000000000000000000000000815260040161383b9190616f53565b60405180910390fd5b8981038260000160006101000a8154816dffffffffffffffffffffffffffff02191690836dffffffffffffffffffffffffffff1602179055508273ffffffffffffffffffffffffffffffffffffffff1663f465c77e858e8e602001518e6040518563ffffffff1660e01b81526004016138bf93929190616d1d565b60006040518083038160008887f19350505050801561390157506040513d6000823e3d601f19601f820116820180604052508101906138fe9190616ff1565b60015b6139c95761390d616149565b806308c379a00361398a575061392161616b565b8061392c575061398c565b8d8160405160200161393e9190617073565b6040516020818303038152906040526040517f220266b60000000000000000000000000000000000000000000000000000000081526004016139819291906162c7565b60405180910390fd5b505b8c6040517f220266b60000000000000000000000000000000000000000000000000000000081526004016139c091906170e5565b60405180910390fd5b81995080985050505050505050509550959350505050565b6000819050919050565b60008060008303613a025760008091509150613a3f565b6000613a0d84613b22565b9050806040015165ffffffffffff16421180613a345750806020015165ffffffffffff1642105b915080600001519250505b915091565b60606000613a5183613ea9565b90506000836020013590506000613a76858060400190613a7191906153a3565b613eb9565b90506000613a92868060600190613a8d91906153a3565b613eb9565b905060008660800135905060008760a00135905060008860c00135905060008960e00135905060008a610100013590506000613add8c806101200190613ad891906153a3565b613eb9565b905089898989898989898989604051602001613b029a99989796959493929190617113565b6040516020818303038152906040529a5050505050505050505050919050565b613b2a613f81565b6000829050600060a084901c905060008165ffffffffffff1603613b525765ffffffffffff90505b600060d085901c905060405180606001604052808473ffffffffffffffffffffffffffffffffffffffff1681526020018265ffffffffffff1681526020018365ffffffffffff168152509350505050919050565b6000818310613bb55781613bb7565b825b905092915050565b60008282905014613ea3576000836000015160000151905060008173ffffffffffffffffffffffffffffffffffffffff163b14613c3357846040517f220266b6000000000000000000000000000000000000000000000000000000008152600401613c2a91906171fb565b60405180910390fd5b60007f000000000000000000000000000000000000000000000000000000000000000073ffffffffffffffffffffffffffffffffffffffff1663570e1a3686600001516060015186866040518463ffffffff1660e01b8152600401613c999291906159d4565b60206040518083038160008887f1158015613cb8573d6000803e3d6000fd5b50505050506040513d601f19601f82011682018060405250810190613cdd9190615a0d565b9050600073ffffffffffffffffffffffffffffffffffffffff168173ffffffffffffffffffffffffffffffffffffffff1603613d5057856040517f220266b6000000000000000000000000000000000000000000000000000000008152600401613d479190617275565b60405180910390fd5b8173ffffffffffffffffffffffffffffffffffffffff168173ffffffffffffffffffffffffffffffffffffffff1614613dc057856040517f220266b6000000000000000000000000000000000000000000000000000000008152600401613db791906172ef565b60405180910390fd5b60008173ffffffffffffffffffffffffffffffffffffffff163b03613e1c57856040517f220266b6000000000000000000000000000000000000000000000000000000008152600401613e139190617369565b60405180910390fd5b60008484600090601492613e3293929190615847565b90613e3d91906158c6565b60601c90508273ffffffffffffffffffffffffffffffffffffffff1686602001517fd51a9c61267aa6196961883ecf5ff2da6619c37dac0fa92122513fb32c032d2d83896000015160a00151604051613e97929190617397565b60405180910390a35050505b50505050565b6000808235905080915050919050565b600060405182808583378082209250505092915050565b6040518060a00160405280613ee3613fc8565b8152602001600080191681526020016000815260200160008152602001600081525090565b6040518060a0016040528060006dffffffffffffffffffffffffffff16815260200160001515815260200160006dffffffffffffffffffffffffffff168152602001600063ffffffff168152602001600065ffffffffffff1681525090565b604051806040016040528060008152602001600081525090565b6040518060600160405280600073ffffffffffffffffffffffffffffffffffffffff168152602001600065ffffffffffff168152602001600065ffffffffffff1681525090565b604051806101000160405280600073ffffffffffffffffffffffffffffffffffffffff16815260200160008152602001600081526020016000815260200160008152602001600073ffffffffffffffffffffffffffffffffffffffff16815260200160008152602001600081525090565b6000604051905090565b600080fd5b600080fd5b600063ffffffff82169050919050565b6140668161404d565b811461407157600080fd5b50565b6000813590506140838161405d565b92915050565b60006020828403121561409f5761409e614043565b5b60006140ad84828501614074565b91505092915050565b600077ffffffffffffffffffffffffffffffffffffffffffffffff82169050919050565b6140e3816140b6565b81146140ee57600080fd5b50565b600081359050614100816140da565b92915050565b60006020828403121561411c5761411b614043565b5b600061412a848285016140f1565b91505092915050565b600073ffffffffffffffffffffffffffffffffffffffff82169050919050565b600061415e82614133565b9050919050565b61416e81614153565b811461417957600080fd5b50565b60008135905061418b81614165565b92915050565b600080604083850312156141a8576141a7614043565b5b60006141b68582860161417c565b92505060206141c7858286016140f1565b9150509250929050565b6000819050919050565b6141e4816141d1565b82525050565b60006020820190506141ff60008301846141db565b92915050565b600080fd5b600080fd5b6000601f19601f8301169050919050565b7f4e487b7100000000000000000000000000000000000000000000000000000000600052604160045260246000fd5b6142588261420f565b810181811067ffffffffffffffff8211171561427757614276614220565b5b80604052505050565b600061428a614039565b9050614296828261424f565b919050565b600067ffffffffffffffff8211156142b6576142b5614220565b5b6142bf8261420f565b9050602081019050919050565b82818337600083830152505050565b60006142ee6142e98461429b565b614280565b90508281526020810184848401111561430a5761430961420a565b5b6143158482856142cc565b509392505050565b600082601f83011261433257614331614205565b5b81356143428482602086016142db565b91505092915050565b600080fd5b614359816141d1565b811461436457600080fd5b50565b60008135905061437681614350565b92915050565b600061010082840312156143935761439261434b565b5b61439e610100614280565b905060006143ae8482850161417c565b60008301525060206143c284828501614367565b60208301525060406143d684828501614367565b60408301525060606143ea84828501614367565b60608301525060806143fe84828501614367565b60808301525060a06144128482850161417c565b60a08301525060c061442684828501614367565b60c08301525060e061443a84828501614367565b60e08301525092915050565b6000819050919050565b61445981614446565b811461446457600080fd5b50565b60008135905061447681614450565b92915050565b600061018082840312156144935761449261434b565b5b61449d60a0614280565b905060006144ad8482850161437c565b6000830152506101006144c284828501614467565b6020830152506101206144d784828501614367565b6040830152506101406144ec84828501614367565b60608301525061016061450184828501614367565b60808301525092915050565b600080fd5b600080fd5b60008083601f84011261452d5761452c614205565b5b8235905067ffffffffffffffff81111561454a5761454961450d565b5b60208301915083600182028301111561456657614565614512565b5b9250929050565b6000806000806101c0858703121561458857614587614043565b5b600085013567ffffffffffffffff8111156145a6576145a5614048565b5b6145b28782880161431d565b94505060206145c38782880161447c565b9350506101a085013567ffffffffffffffff8111156145e5576145e4614048565b5b6145f187828801614517565b925092505092959194509250565b60008083601f84011261461557614614614205565b5b8235905067ffffffffffffffff8111156146325761463161450d565b5b60208301915083602082028301111561464e5761464d614512565b5b9250929050565b600061466082614133565b9050919050565b61467081614655565b811461467b57600080fd5b50565b60008135905061468d81614667565b92915050565b6000806000604084860312156146ac576146ab614043565b5b600084013567ffffffffffffffff8111156146ca576146c9614048565b5b6146d6868287016145ff565b935093505060206146e98682870161467e565b9150509250925092565b6000806040838503121561470a57614709614043565b5b60006147188582860161467e565b925050602061472985828601614367565b9150509250929050565b60008083601f84011261474957614748614205565b5b8235905067ffffffffffffffff8111156147665761476561450d565b5b60208301915083602082028301111561478257614781614512565b5b9250929050565b6000806000604084860312156147a2576147a1614043565b5b600084013567ffffffffffffffff8111156147c0576147bf614048565b5b6147cc86828701614733565b935093505060206147df8682870161467e565b9150509250925092565b6000602082840312156147ff576147fe614043565b5b600061480d8482850161417c565b91505092915050565b60006dffffffffffffffffffffffffffff82169050919050565b61483981614816565b82525050565b60008115159050919050565b6148548161483f565b82525050565b6148638161404d565b82525050565b600065ffffffffffff82169050919050565b61488481614869565b82525050565b60a0820160008201516148a06000850182614830565b5060208201516148b3602085018261484b565b5060408201516148c66040850182614830565b5060608201516148d9606085018261485a565b5060808201516148ec608085018261487b565b50505050565b600060a082019050614907600083018461488a565b92915050565b60008060008060006060868803121561492957614928614043565b5b600086013567ffffffffffffffff81111561494757614946614048565b5b61495388828901614517565b955095505060206149668882890161417c565b935050604086013567ffffffffffffffff81111561498757614986614048565b5b61499388828901614517565b92509250509295509295909350565b600080602083850312156149b9576149b8614043565b5b600083013567ffffffffffffffff8111156149d7576149d6614048565b5b6149e385828601614517565b92509250509250929050565b600080fd5b60006101608284031215614a0b57614a0a6149ef565b5b81905092915050565b600060208284031215614a2a57614a29614043565b5b600082013567ffffffffffffffff811115614a4857614a47614048565b5b614a54848285016149f4565b91505092915050565b614a6681614446565b82525050565b6000602082019050614a816000830184614a5d565b92915050565b600060208284031215614a9d57614a9c614043565b5b6000614aab8482850161467e565b91505092915050565b60008060008060608587031215614ace57614acd614043565b5b600085013567ffffffffffffffff811115614aec57614aeb614048565b5b614af8878288016149f4565b9450506020614b098782880161417c565b935050604085013567ffffffffffffffff811115614b2a57614b29614048565b5b614b3687828801614517565b925092505092959194509250565b614b4d81614816565b82525050565b614b5c8161483f565b82525050565b614b6b8161404d565b82525050565b614b7a81614869565b82525050565b600060a082019050614b956000830188614b44565b614ba26020830187614b53565b614baf6040830186614b44565b614bbc6060830185614b62565b614bc96080830184614b71565b9695505050505050565b6000819050919050565b6000614bf8614bf3614bee84614816565b614bd3565b6141d1565b9050919050565b614c0881614bdd565b82525050565b6000602082019050614c236000830184614bff565b92915050565b600082825260208201905092915050565b7f6d757374207370656369667920756e7374616b652064656c6179000000000000600082015250565b6000614c70601a83614c29565b9150614c7b82614c3a565b602082019050919050565b60006020820190508181036000830152614c9f81614c63565b9050919050565b7f63616e6e6f7420646563726561736520756e7374616b652074696d6500000000600082015250565b6000614cdc601c83614c29565b9150614ce782614ca6565b602082019050919050565b60006020820190508181036000830152614d0b81614ccf565b9050919050565b7f4e487b7100000000000000000000000000000000000000000000000000000000600052601160045260246000fd5b6000614d4c826141d1565b9150614d57836141d1565b9250828201905080821115614d6f57614d6e614d12565b5b92915050565b7f6e6f207374616b65207370656369666965640000000000000000000000000000600082015250565b6000614dab601283614c29565b9150614db682614d75565b602082019050919050565b60006020820190508181036000830152614dda81614d9e565b9050919050565b7f7374616b65206f766572666c6f77000000000000000000000000000000000000600082015250565b6000614e17600e83614c29565b9150614e2282614de1565b602082019050919050565b60006020820190508181036000830152614e4681614e0a565b9050919050565b6000614e68614e63614e5e8461404d565b614bd3565b6141d1565b9050919050565b614e7881614e4d565b82525050565b6000604082019050614e9360008301856141db565b614ea06020830184614e6f565b9392505050565b6000614eb2826141d1565b91507fffffffffffffffffffffffffffffffffffffffffffffffffffffffffffffffff8203614ee457614ee3614d12565b5b600182019050919050565b7f4141393220696e7465726e616c2063616c6c206f6e6c79000000000000000000600082015250565b6000614f25601783614c29565b9150614f3082614eef565b602082019050919050565b60006020820190508181036000830152614f5481614f18565b9050919050565b600081519050919050565b600082825260208201905092915050565b60005b83811015614f95578082015181840152602081019050614f7a565b60008484015250505050565b6000614fac82614f5b565b614fb68185614f66565b9350614fc6818560208601614f77565b614fcf8161420f565b840191505092915050565b6000604082019050614fef60008301856141db565b81810360208301526150018184614fa1565b90509392505050565b7f4e487b7100000000000000000000000000000000000000000000000000000000600052603260045260246000fd5b600080fd5b600080fd5b600080fd5b6000823560016101600383360303811261506557615064615039565b5b80830191505092915050565b7f576974686472617720616d6f756e7420746f6f206c6172676500000000000000600082015250565b60006150a7601983614c29565b91506150b282615071565b602082019050919050565b600060208201905081810360008301526150d68161509a565b9050919050565b60006150e8826141d1565b91506150f3836141d1565b925082820390508181111561510b5761510a614d12565b5b92915050565b600061512c61512761512284614133565b614bd3565b614133565b9050919050565b600061513e82615111565b9050919050565b600061515082615133565b9050919050565b61516081615145565b82525050565b600060408201905061517b6000830185615157565b61518860208301846141db565b9392505050565b600081905092915050565b50565b60006151aa60008361518f565b91506151b58261519a565b600082019050919050565b60006151cb8261519d565b9150819050919050565b7f6661696c656420746f2077697468647261770000000000000000000000000000600082015250565b600061520b601283614c29565b9150615216826151d5565b602082019050919050565b6000602082019050818103600083015261523a816151fe565b9050919050565b60008235600160600383360303811261525d5761525c615039565b5b80830191505092915050565b6000808335600160200384360303811261528657615285615039565b5b80840192508235915067ffffffffffffffff8211156152a8576152a761503e565b5b6020830192506020820236038313156152c4576152c3615043565b5b509250929050565b60006152d782614153565b9050919050565b6152e7816152cc565b81146152f257600080fd5b50565b600081359050615304816152de565b92915050565b6000602082840312156153205761531f614043565b5b600061532e848285016152f5565b91505092915050565b7f4141393620696e76616c69642061676772656761746f72000000000000000000600082015250565b600061536d601783614c29565b915061537882615337565b602082019050919050565b6000602082019050818103600083015261539c81615360565b9050919050565b600080833560016020038436030381126153c0576153bf615039565b5b80840192508235915067ffffffffffffffff8211156153e2576153e161503e565b5b6020830192506001820236038313156153fe576153fd615043565b5b509250929050565b600082825260208201905092915050565b6000819050919050565b6000615430602084018461417c565b905092915050565b61544181614153565b82525050565b60006154566020840184614367565b905092915050565b615467816141d1565b82525050565b600080fd5b600080fd5b600080fd5b6000808335600160200384360303811261549957615498615477565b5b83810192508235915060208301925067ffffffffffffffff8211156154c1576154c061546d565b5b6001820236038313156154d7576154d6615472565b5b509250929050565b600082825260208201905092915050565b60006154fc83856154df565b93506155098385846142cc565b6155128361420f565b840190509392505050565b600061016083016155316000840184615421565b61553e6000860182615438565b5061554c6020840184615447565b615559602086018261545e565b50615567604084018461547c565b858303604087015261557a8382846154f0565b9250505061558b606084018461547c565b858303606087015261559e8382846154f0565b925050506155af6080840184615447565b6155bc608086018261545e565b506155ca60a0840184615447565b6155d760a086018261545e565b506155e560c0840184615447565b6155f260c086018261545e565b5061560060e0840184615447565b61560d60e086018261545e565b5061561c610100840184615447565b61562a61010086018261545e565b5061563961012084018461547c565b85830361012087015261564d8382846154f0565b9250505061565f61014084018461547c565b8583036101408701526156738382846154f0565b925050508091505092915050565b600061568d838361551d565b905092915050565b600082356001610160038336030381126156b2576156b1615477565b5b82810191505092915050565b6000602082019050919050565b60006156d78385615406565b9350836020840285016156e984615417565b8060005b8781101561572d5784840389526157048284615695565b61570e8582615681565b9450615719836156be565b925060208a019950506001810190506156ed565b50829750879450505050509392505050565b600061574b8385614f66565b93506157588385846142cc565b6157618361420f565b840190509392505050565b600060408201905081810360008301526157878186886156cb565b9050818103602083015261579c81848661573f565b905095945050505050565b6157b081614153565b82525050565b60006020820190506157cb60008301846157a7565b92915050565b7f41413230206163636f756e74206e6f74206465706c6f79656400000000000000600082015250565b6000615807601983614c29565b9150615812826157d1565b602082019050919050565b60006020820190508181036000830152615836816157fa565b9050919050565b600080fd5b600080fd5b6000808585111561585b5761585a61583d565b5b8386111561586c5761586b615842565b5b6001850283019150848603905094509492505050565b600082905092915050565b60007fffffffffffffffffffffffffffffffffffffffff00000000000000000000000082169050919050565b600082821b905092915050565b60006158d28383615882565b826158dd813561588d565b9250601482101561591d576159187fffffffffffffffffffffffffffffffffffffffff000000000000000000000000836014036008026158b9565b831692505b505092915050565b7f41413330207061796d6173746572206e6f74206465706c6f7965640000000000600082015250565b600061595b601b83614c29565b915061596682615925565b602082019050919050565b6000602082019050818103600083015261598a8161594e565b9050919050565b600061599e600083614c29565b91506159a98261519a565b600082019050919050565b600060208201905081810360008301526159cd81615991565b9050919050565b600060208201905081810360008301526159ef81848661573f565b90509392505050565b600081519050615a0781614165565b92915050565b600060208284031215615a2357615a22614043565b5b6000615a31848285016159f8565b91505092915050565b6000606082019050615a4f6000830186614a5d565b615a5c60208301856157a7565b615a6960408301846141db565b949350505050565b7f6e6f74207374616b656400000000000000000000000000000000000000000000600082015250565b6000615aa7600a83614c29565b9150615ab282615a71565b602082019050919050565b60006020820190508181036000830152615ad681615a9a565b9050919050565b7f616c726561647920756e7374616b696e67000000000000000000000000000000600082015250565b6000615b13601183614c29565b9150615b1e82615add565b602082019050919050565b60006020820190508181036000830152615b4281615b06565b9050919050565b6000615b5482614869565b9150615b5f83614869565b9250828201905065ffffffffffff811115615b7d57615b7c614d12565b5b92915050565b6000615b9e615b99615b9484614869565b614bd3565b6141d1565b9050919050565b615bae81615b83565b82525050565b6000602082019050615bc96000830184615ba5565b92915050565b7f4e6f207374616b6520746f207769746864726177000000000000000000000000600082015250565b6000615c05601483614c29565b9150615c1082615bcf565b602082019050919050565b60006020820190508181036000830152615c3481615bf8565b9050919050565b7f6d7573742063616c6c20756e6c6f636b5374616b652829206669727374000000600082015250565b6000615c71601d83614c29565b9150615c7c82615c3b565b602082019050919050565b60006020820190508181036000830152615ca081615c64565b9050919050565b7f5374616b65207769746864726177616c206973206e6f74206475650000000000600082015250565b6000615cdd601b83614c29565b9150615ce882615ca7565b602082019050919050565b60006020820190508181036000830152615d0c81615cd0565b9050919050565b7f6661696c656420746f207769746864726177207374616b650000000000000000600082015250565b6000615d49601883614c29565b9150615d5482615d13565b602082019050919050565b60006020820190508181036000830152615d7881615d3c565b9050919050565b6000615d8b838561518f565b9350615d988385846142cc565b82840190509392505050565b6000615db1828486615d7f565b91508190509392505050565b600060c082019050615dd260008301896141db565b615ddf60208301886141db565b615dec6040830187614b71565b615df96060830186614b71565b615e066080830185614b53565b81810360a0830152615e188184614fa1565b9050979650505050505050565b6000615e3082614f5b565b615e3a81856154df565b9350615e4a818560208601614f77565b615e538161420f565b840191505092915050565b600060c083016000830151615e76600086018261545e565b506020830151615e89602086018261545e565b506040830151615e9c604086018261484b565b506060830151615eaf606086018261487b565b506080830151615ec2608086018261487b565b5060a083015184820360a0860152615eda8282615e25565b9150508091505092915050565b604082016000820151615efd600085018261545e565b506020820151615f10602085018261545e565b50505050565b604082016000820151615f2c600085018261545e565b506020820151615f3f602085018261545e565b50505050565b606082016000820151615f5b6000850182615438565b506020820151615f6e6020850182615f16565b50505050565b6000610140820190508181036000830152615f8f8188615e5e565b9050615f9e6020830187615ee7565b615fab6060830186615ee7565b615fb860a0830185615ee7565b615fc560e0830184615f45565b9695505050505050565b600060e0820190508181036000830152615fe98187615e5e565b9050615ff86020830186615ee7565b6160056060830185615ee7565b61601260a0830184615ee7565b95945050505050565b7f6465706f736974206f766572666c6f7700000000000000000000000000000000600082015250565b6000616051601083614c29565b915061605c8261601b565b602082019050919050565b6000602082019050818103600083015261608081616044565b9050919050565b7f4e487b7100000000000000000000000000000000000000000000000000000000600052602160045260246000fd5b600381106160c7576160c6616087565b5b50565b60008190506160d8826160b6565b919050565b60006160e8826160ca565b9050919050565b6160f8816160dd565b82525050565b600060608201905061611360008301866160ef565b81810360208301526161258185614fa1565b905061613460408301846141db565b949350505050565b60008160e01c9050919050565b600060033d11156161685760046000803e61616560005161613c565b90505b90565b600060443d106161f85761617d614039565b60043d036004823e80513d602482011167ffffffffffffffff821117156161a55750506161f8565b808201805167ffffffffffffffff8111156161c357505050506161f8565b80602083010160043d0385018111156161e05750505050506161f8565b6161ef8260200185018661424f565b82955050505050505b90565b7f4141353020706f73744f702072657665727465643a2000000000000000000000815250565b600081519050919050565b600081905092915050565b600061624282616221565b61624c818561622c565b935061625c818560208601614f77565b80840191505092915050565b6000616273826161fb565b6016820191506162838284616237565b915081905092915050565b600061629982616221565b6162a38185614c29565b93506162b3818560208601614f77565b6162bc8161420f565b840191505092915050565b60006040820190506162dc60008301856141db565b81810360208301526162ee818461628e565b90509392505050565b7f4141353020706f73744f70207265766572740000000000000000000000000000600082015250565b600061632d601283614c29565b9150616338826162f7565b602082019050919050565b600060408201905061635860008301846141db565b818103602083015261636981616320565b905092915050565b7f414135312070726566756e642062656c6f772061637475616c476173436f7374600082015250565b60006163a7602083614c29565b91506163b282616371565b602082019050919050565b60006040820190506163d260008301846141db565b81810360208301526163e38161639a565b905092915050565b600060808201905061640060008301876141db565b61640d6020830186614b53565b61641a60408301856141db565b61642760608301846141db565b95945050505050565b7f41413934206761732076616c756573206f766572666c6f770000000000000000600082015250565b6000616466601883614c29565b915061647182616430565b602082019050919050565b6000602082019050818103600083015261649581616459565b9050919050565b7f4141323520696e76616c6964206163636f756e74206e6f6e6365000000000000600082015250565b60006164d2601a83614c29565b91506164dd8261649c565b602082019050919050565b60006040820190506164fd60008301846141db565b818103602083015261650e816164c5565b905092915050565b7f41413430206f76657220766572696669636174696f6e4761734c696d69740000600082015250565b600061654c601e83614c29565b915061655782616516565b602082019050919050565b600060408201905061657760008301846141db565b81810360208301526165888161653f565b905092915050565b7f41413234207369676e6174757265206572726f72000000000000000000000000600082015250565b60006165c6601483614c29565b91506165d182616590565b602082019050919050565b60006040820190506165f160008301846141db565b8181036020830152616602816165b9565b905092915050565b7f414132322065787069726564206f72206e6f7420647565000000000000000000600082015250565b6000616640601783614c29565b915061664b8261660a565b602082019050919050565b600060408201905061666b60008301846141db565b818103602083015261667c81616633565b905092915050565b7f41413334207369676e6174757265206572726f72000000000000000000000000600082015250565b60006166ba601483614c29565b91506166c582616684565b602082019050919050565b60006040820190506166e560008301846141db565b81810360208301526166f6816166ad565b905092915050565b7f41413332207061796d61737465722065787069726564206f72206e6f7420647560008201527f6500000000000000000000000000000000000000000000000000000000000000602082015250565b600061675a602183614c29565b9150616765826166fe565b604082019050919050565b600060408201905061678560008301846141db565b81810360208301526167968161674d565b905092915050565b610100820160008201516167b56000850182615438565b5060208201516167c8602085018261545e565b5060408201516167db604085018261545e565b5060608201516167ee606085018261545e565b506080820151616801608085018261545e565b5060a082015161681460a0850182615438565b5060c082015161682760c085018261545e565b5060e082015161683a60e085018261545e565b50505050565b61684981614446565b82525050565b61018082016000820151616866600085018261679e565b50602082015161687a610100850182616840565b50604082015161688e61012085018261545e565b5060608201516168a261014085018261545e565b5060808201516168b661016085018261545e565b50505050565b60006101c08201905081810360008301526168d881868861573f565b90506168e7602083018561684f565b8181036101a08301526168fa8184614fa1565b905095945050505050565b60008151905061691481614350565b92915050565b6000602082840312156169305761692f614043565b5b600061693e84828501616905565b91505092915050565b7f41413935206f7574206f66206761730000000000000000000000000000000000600082015250565b600061697d600f83614c29565b915061698882616947565b602082019050919050565b60006040820190506169a860008301846141db565b81810360208301526169b981616970565b905092915050565b7f4141393020696e76616c69642062656e65666963696172790000000000000000600082015250565b60006169f7601883614c29565b9150616a02826169c1565b602082019050919050565b60006020820190508181036000830152616a26816169ea565b9050919050565b7f41413931206661696c65642073656e6420746f2062656e656669636961727900600082015250565b6000616a63601f83614c29565b9150616a6e82616a2d565b602082019050919050565b60006020820190508181036000830152616a9281616a56565b9050919050565b60006060820190508181036000830152616ab481878961573f565b9050616ac360208301866157a7565b8181036040830152616ad681848661573f565b90509695505050505050565b6000819050919050565b6000616b07616b02616afd84616ae2565b614bd3565b6141d1565b9050919050565b616b1781616aec565b82525050565b6000604082019050616b326000830185616b0e565b8181036020830152616b44818461628e565b90509392505050565b7f4141393320696e76616c6964207061796d6173746572416e6444617461000000600082015250565b6000616b83601d83614c29565b9150616b8e82616b4d565b602082019050919050565b60006020820190508181036000830152616bb281616b76565b9050919050565b60006101608301616bcd6000840184615421565b616bda6000860182615438565b50616be86020840184615447565b616bf5602086018261545e565b50616c03604084018461547c565b8583036040870152616c168382846154f0565b92505050616c27606084018461547c565b8583036060870152616c3a8382846154f0565b92505050616c4b6080840184615447565b616c58608086018261545e565b50616c6660a0840184615447565b616c7360a086018261545e565b50616c8160c0840184615447565b616c8e60c086018261545e565b50616c9c60e0840184615447565b616ca960e086018261545e565b50616cb8610100840184615447565b616cc661010086018261545e565b50616cd561012084018461547c565b858303610120870152616ce98382846154f0565b92505050616cfb61014084018461547c565b858303610140870152616d0f8382846154f0565b925050508091505092915050565b60006060820190508181036000830152616d378186616bb9565b9050616d466020830185614a5d565b616d5360408301846141db565b949350505050565b7f414132332072657665727465643a200000000000000000000000000000000000815250565b6000616d8c82616d5b565b600f82019150616d9c8284616237565b915081905092915050565b7f4141323320726576657274656420286f72204f4f472900000000000000000000600082015250565b6000616ddd601683614c29565b9150616de882616da7565b602082019050919050565b6000604082019050616e0860008301846141db565b8181036020830152616e1981616dd0565b905092915050565b7f41413231206469646e2774207061792070726566756e64000000000000000000600082015250565b6000616e57601783614c29565b9150616e6282616e21565b602082019050919050565b6000604082019050616e8260008301846141db565b8181036020830152616e9381616e4a565b905092915050565b7f4141343120746f6f206c6974746c6520766572696669636174696f6e47617300600082015250565b6000616ed1601f83614c29565b9150616edc82616e9b565b602082019050919050565b60006020820190508181036000830152616f0081616ec4565b9050919050565b7f41413331207061796d6173746572206465706f73697420746f6f206c6f770000600082015250565b6000616f3d601e83614c29565b9150616f4882616f07565b602082019050919050565b6000604082019050616f6860008301846141db565b8181036020830152616f7981616f30565b905092915050565b6000616f94616f8f8461429b565b614280565b905082815260208101848484011115616fb057616faf61420a565b5b616fbb848285614f77565b509392505050565b600082601f830112616fd857616fd7614205565b5b8151616fe8848260208601616f81565b91505092915050565b6000806040838503121561700857617007614043565b5b600083015167ffffffffffffffff81111561702657617025614048565b5b61703285828601616fc3565b925050602061704385828601616905565b9150509250929050565b7f414133332072657665727465643a200000000000000000000000000000000000815250565b600061707e8261704d565b600f8201915061708e8284616237565b915081905092915050565b7f4141333320726576657274656420286f72204f4f472900000000000000000000600082015250565b60006170cf601683614c29565b91506170da82617099565b602082019050919050565b60006040820190506170fa60008301846141db565b818103602083015261710b816170c2565b905092915050565b600061014082019050617129600083018d6157a7565b617136602083018c6141db565b617143604083018b614a5d565b617150606083018a614a5d565b61715d60808301896141db565b61716a60a08301886141db565b61717760c08301876141db565b61718460e08301866141db565b6171926101008301856141db565b6171a0610120830184614a5d565b9b9a5050505050505050505050565b7f414131302073656e64657220616c726561647920636f6e737472756374656400600082015250565b60006171e5601f83614c29565b91506171f0826171af565b602082019050919050565b600060408201905061721060008301846141db565b8181036020830152617221816171d8565b905092915050565b7f4141313320696e6974436f6465206661696c6564206f72204f4f470000000000600082015250565b600061725f601b83614c29565b915061726a82617229565b602082019050919050565b600060408201905061728a60008301846141db565b818103602083015261729b81617252565b905092915050565b7f4141313420696e6974436f6465206d7573742072657475726e2073656e646572600082015250565b60006172d9602083614c29565b91506172e4826172a3565b602082019050919050565b600060408201905061730460008301846141db565b8181036020830152617315816172cc565b905092915050565b7f4141313520696e6974436f6465206d757374206372656174652073656e646572600082015250565b6000617353602083614c29565b915061735e8261731d565b602082019050919050565b600060408201905061737e60008301846141db565b818103602083015261738f81617346565b905092915050565b60006040820190506173ac60008301856157a7565b6173b960208301846157a7565b939250505056fea26469706673582212204fa970a54c1bf198d4d6b844f6e3cc5cfb8dbe2385fafeaed07376297c59c15064736f6c63430008140033608060405234801561001057600080fd5b50610342806100206000396000f3fe608060405234801561001057600080fd5b506004361061002b5760003560e01c8063570e1a3614610030575b600080fd5b61004a6004803603810190610045919061017b565b610060565b6040516100579190610209565b60405180910390f35b60008083836000906014926100779392919061022e565b9061008291906102ad565b60601c905060008484601490809261009c9392919061022e565b8080601f016020809104026020016040519081016040528093929190818152602001838380828437600081840152601f19601f8201169050808301925050505050505090506000602060008351602085016000875af1905060005193508061010357600093505b50505092915050565b600080fd5b600080fd5b600080fd5b600080fd5b600080fd5b60008083601f84011261013b5761013a610116565b5b8235905067ffffffffffffffff8111156101585761015761011b565b5b60208301915083600182028301111561017457610173610120565b5b9250929050565b600080602083850312156101925761019161010c565b5b600083013567ffffffffffffffff8111156101b0576101af610111565b5b6101bc85828601610125565b92509250509250929050565b600073ffffffffffffffffffffffffffffffffffffffff82169050919050565b60006101f3826101c8565b9050919050565b610203816101e8565b82525050565b600060208201905061021e60008301846101fa565b92915050565b600080fd5b600080fd5b6000808585111561024257610241610224565b5b8386111561025357610252610229565b5b6001850283019150848603905094509492505050565b600082905092915050565b60007fffffffffffffffffffffffffffffffffffffffff00000000000000000000000082169050919050565b600082821b905092915050565b60006102b98383610269565b826102c48135610274565b92506014821015610304576102ff7fffffffffffffffffffffffffffffffffffffffff000000000000000000000000836014036008026102a0565b831692505b50509291505056fea2646970667358221220585827b57f68322adcb990ed3da974fade22ce9e1e3112987e97643f88c6858f64736f6c63430008140033",
  "linkReferences": {},
  "deployedLinkReferences": {}
}